{
  "_format": "hh-sol-artifact-1",
  "contractName": "AttributionManager",
  "sourceName": "contracts/AttributionManager.sol",
  "abi": [
    {
      "inputs": [
        {
          "internalType": "address",
          "name": "_datasetRegistry",
          "type": "address"
        },
        {
          "internalType": "address",
          "name": "_platformFeeCollector",
          "type": "address"
        }
      ],
      "stateMutability": "nonpayable",
      "type": "constructor"
    },
    {
      "anonymous": false,
      "inputs": [
        {
          "indexed": true,
          "internalType": "uint256",
          "name": "datasetId",
          "type": "uint256"
        },
        {
          "indexed": true,
          "internalType": "uint256",
          "name": "modelId",
          "type": "uint256"
        },
        {
          "indexed": false,
          "internalType": "string",
          "name": "usageType",
          "type": "string"
        },
        {
          "indexed": false,
          "internalType": "uint256",
          "name": "impactScore",
          "type": "uint256"
        },
        {
          "indexed": false,
          "internalType": "uint256",
          "name": "timestamp",
          "type": "uint256"
        }
      ],
      "name": "AttributionRecorded",
      "type": "event"
    },
    {
      "anonymous": false,
      "inputs": [
        {
          "indexed": true,
          "internalType": "address",
          "name": "previousOwner",
          "type": "address"
        },
        {
          "indexed": true,
          "internalType": "address",
          "name": "newOwner",
          "type": "address"
        }
      ],
      "name": "OwnershipTransferred",
      "type": "event"
    },
    {
      "anonymous": false,
      "inputs": [
        {
          "indexed": true,
          "internalType": "uint256",
          "name": "datasetId",
          "type": "uint256"
        },
        {
          "indexed": false,
          "internalType": "uint256",
          "name": "totalAmount",
          "type": "uint256"
        },
        {
          "indexed": false,
          "internalType": "uint256",
          "name": "timestamp",
          "type": "uint256"
        }
      ],
      "name": "RoyaltiesDistributed",
      "type": "event"
    },
    {
      "anonymous": false,
      "inputs": [
        {
          "indexed": true,
          "internalType": "uint256",
          "name": "datasetId",
          "type": "uint256"
        },
        {
          "indexed": true,
          "internalType": "address",
          "name": "payer",
          "type": "address"
        },
        {
          "indexed": false,
          "internalType": "uint256",
          "name": "amount",
          "type": "uint256"
        },
        {
          "indexed": false,
          "internalType": "uint256",
          "name": "timestamp",
          "type": "uint256"
        }
      ],
      "name": "RoyaltyPaymentReceived",
      "type": "event"
    },
    {
      "inputs": [
        {
          "internalType": "uint256",
          "name": "datasetId",
          "type": "uint256"
        }
      ],
      "name": "calculateAttributionShares",
      "outputs": [
        {
          "internalType": "address[]",
          "name": "",
          "type": "address[]"
        },
        {
          "internalType": "uint256[]",
          "name": "",
          "type": "uint256[]"
        }
      ],
      "stateMutability": "view",
      "type": "function"
    },
    {
      "inputs": [],
      "name": "datasetRegistry",
      "outputs": [
        {
          "internalType": "contract IDatasetRegistry",
          "name": "",
          "type": "address"
        }
      ],
      "stateMutability": "view",
      "type": "function"
    },
    {
      "inputs": [
        {
          "internalType": "uint256",
          "name": "datasetId",
          "type": "uint256"
        }
      ],
      "name": "distributeRoyalties",
      "outputs": [],
      "stateMutability": "payable",
      "type": "function"
    },
    {
      "inputs": [
        {
          "internalType": "uint256",
          "name": "datasetId",
          "type": "uint256"
        }
      ],
      "name": "getAttributionHistory",
      "outputs": [
        {
          "components": [
            {
              "internalType": "uint256",
              "name": "datasetId",
              "type": "uint256"
            },
            {
              "internalType": "uint256",
              "name": "modelId",
              "type": "uint256"
            },
            {
              "internalType": "string",
              "name": "usageType",
              "type": "string"
            },
            {
              "internalType": "uint256",
              "name": "impactScore",
              "type": "uint256"
            },
            {
              "internalType": "uint256",
              "name": "timestamp",
              "type": "uint256"
            }
          ],
          "internalType": "struct DataTypes.Attribution[]",
          "name": "",
          "type": "tuple[]"
        }
      ],
      "stateMutability": "view",
      "type": "function"
    },
    {
      "inputs": [
        {
          "internalType": "uint256",
          "name": "datasetId",
          "type": "uint256"
        }
      ],
      "name": "getPendingRoyalties",
      "outputs": [
        {
          "internalType": "uint256",
          "name": "",
          "type": "uint256"
        }
      ],
      "stateMutability": "view",
      "type": "function"
    },
    {
      "inputs": [
        {
          "internalType": "uint256",
          "name": "datasetId",
          "type": "uint256"
        }
      ],
      "name": "getRoyaltyDistributionHistory",
      "outputs": [
        {
          "components": [
            {
              "internalType": "uint256",
              "name": "datasetId",
              "type": "uint256"
            },
            {
              "internalType": "uint256",
              "name": "totalAmount",
              "type": "uint256"
            },
            {
              "internalType": "address[]",
              "name": "recipients",
              "type": "address[]"
            },
            {
              "internalType": "uint256[]",
              "name": "amounts",
              "type": "uint256[]"
            },
            {
              "internalType": "uint256",
              "name": "distributionTime",
              "type": "uint256"
            }
          ],
          "internalType": "struct DataTypes.RoyaltyDistribution[]",
          "name": "",
          "type": "tuple[]"
        }
      ],
      "stateMutability": "view",
      "type": "function"
    },
    {
      "inputs": [],
      "name": "owner",
      "outputs": [
        {
          "internalType": "address",
          "name": "",
          "type": "address"
        }
      ],
      "stateMutability": "view",
      "type": "function"
    },
    {
      "inputs": [
        {
          "internalType": "uint256",
          "name": "datasetId",
          "type": "uint256"
        }
      ],
      "name": "payRoyalties",
      "outputs": [],
      "stateMutability": "payable",
      "type": "function"
    },
    {
      "inputs": [],
      "name": "platformFeeCollector",
      "outputs": [
        {
          "internalType": "address",
          "name": "",
          "type": "address"
        }
      ],
      "stateMutability": "view",
      "type": "function"
    },
    {
      "inputs": [],
      "name": "platformFeePercentage",
      "outputs": [
        {
          "internalType": "uint256",
          "name": "",
          "type": "uint256"
        }
      ],
      "stateMutability": "view",
      "type": "function"
    },
    {
      "inputs": [
        {
          "internalType": "uint256",
          "name": "datasetId",
          "type": "uint256"
        },
        {
          "internalType": "uint256",
          "name": "modelId",
          "type": "uint256"
        },
        {
          "internalType": "string",
          "name": "usageType",
          "type": "string"
        },
        {
          "internalType": "uint256",
          "name": "impactScore",
          "type": "uint256"
        }
      ],
      "name": "recordAttribution",
      "outputs": [],
      "stateMutability": "nonpayable",
      "type": "function"
    },
    {
      "inputs": [],
      "name": "renounceOwnership",
      "outputs": [],
      "stateMutability": "nonpayable",
      "type": "function"
    },
    {
      "inputs": [
        {
          "internalType": "address",
          "name": "_platformFeeCollector",
          "type": "address"
        }
      ],
      "name": "setPlatformFeeCollector",
      "outputs": [],
      "stateMutability": "nonpayable",
      "type": "function"
    },
    {
      "inputs": [
        {
          "internalType": "uint256",
          "name": "_feePercentage",
          "type": "uint256"
        }
      ],
      "name": "setPlatformFeePercentage",
      "outputs": [],
      "stateMutability": "nonpayable",
      "type": "function"
    },
    {
      "inputs": [
        {
          "internalType": "address",
          "name": "newOwner",
          "type": "address"
        }
      ],
      "name": "transferOwnership",
      "outputs": [],
      "stateMutability": "nonpayable",
      "type": "function"
    }
  ],
  "bytecode": "0x608060405260fa6007553480156200001657600080fd5b5060405162001f4238038062001f428339810160408190526200003991620001db565b62000044336200016e565b600180556001600160a01b038216620000ca5760405162461bcd60e51b815260206004820152603460248201527f4174747269627574696f6e4d616e616765723a20496e76616c6964206461746160448201527f736574207265676973747279206164647265737300000000000000000000000060648201526084015b60405180910390fd5b6001600160a01b0381166200013c5760405162461bcd60e51b815260206004820152603160248201527f4174747269627574696f6e4d616e616765723a20496e76616c69642066656520604482015270636f6c6c6563746f72206164647265737360781b6064820152608401620000c1565b600280546001600160a01b039384166001600160a01b0319918216179091556008805492909316911617905562000213565b600080546001600160a01b038381166001600160a01b0319831681178455604051919092169283917f8be0079c531659141344cd1fd0a4f28419497f9722a3daafe3b4186f6b6457e09190a35050565b80516001600160a01b0381168114620001d657600080fd5b919050565b60008060408385031215620001ef57600080fd5b620001fa83620001be565b91506200020a60208401620001be565b90509250929050565b611d1f80620002236000396000f3fe6080604052600436106100e85760003560e01c80638b3fb8b31161008a578063cdd78cfc11610059578063cdd78cfc1461027f578063dd5278fc14610295578063dfc90cf2146102c2578063f2fde38b146102e257600080fd5b80638b3fb8b3146102005780638da5cb5b14610220578063ae61bdee1461023e578063b07cb3651461026c57600080fd5b80638333903e116100c65780638333903e14610172578063853a65f914610192578063870e20cf146101b2578063890d5b64146101ed57600080fd5b806304da18d5146100ed5780633235ad1314610123578063715018a61461015b575b600080fd5b3480156100f957600080fd5b5061010d6101083660046113a5565b610302565b60405161011a91906113f9565b60405180910390f35b34801561012f57600080fd5b50600254610143906001600160a01b031681565b6040516001600160a01b03909116815260200161011a565b34801561016757600080fd5b5061017061044c565b005b34801561017e57600080fd5b5061017061018d3660046113a5565b610460565b34801561019e57600080fd5b50600854610143906001600160a01b031681565b3480156101be57600080fd5b506101df6101cd3660046113a5565b60009081526005602052604090205490565b60405190815260200161011a565b6101706101fb3660046113a5565b6104d8565b34801561020c57600080fd5b5061017061021b36600461158f565b610657565b34801561022c57600080fd5b506000546001600160a01b0316610143565b34801561024a57600080fd5b5061025e6102593660046113a5565b6107f5565b60405161011a92919061162a565b61017061027a3660046113a5565b610a8f565b34801561028b57600080fd5b506101df60075481565b3480156102a157600080fd5b506102b56102b03660046113a5565b610fbc565b60405161011a91906116fe565b3480156102ce57600080fd5b506101706102dd3660046117a8565b6110dd565b3480156102ee57600080fd5b506101706102fd3660046117a8565b611177565b606060046000838152602001908152602001600020805480602002602001604051908101604052809291908181526020016000905b8282101561044157838290600052602060002090600502016040518060a00160405290816000820154815260200160018201548152602001600282018054806020026020016040519081016040528092919081815260200182805480156103c757602002820191906000526020600020905b81546001600160a01b031681526001909101906020018083116103a9575b505050505081526020016003820180548060200260200160405190810160405280929190818152602001828054801561041f57602002820191906000526020600020905b81548152602001906001019080831161040b575b5050505050815260200160048201548152505081526020019060010190610337565b505050509050919050565b6104546111ed565b61045e6000611247565b565b6104686111ed565b6103e88111156104d35760405162461bcd60e51b815260206004820152602b60248201527f4174747269627574696f6e4d616e616765723a204665652070657263656e746160448201526a0ceca40e8dede40d0d2ced60ab1b60648201526084015b60405180910390fd5b600755565b6104e0611297565b6000341161054c5760405162461bcd60e51b815260206004820152603360248201527f4174747269627574696f6e4d616e616765723a205061796d656e7420616d6f756044820152726e74206d75737420626520706f73697469766560681b60648201526084016104ca565b6002546040516334ff670360e11b8152600481018390526000916001600160a01b0316906369fece0690602401600060405180830381865afa158015610596573d6000803e3d6000fd5b505050506040513d6000823e601f3d908101601f191682016040526105be9190810190611839565b60408101519091506001600160a01b03166105eb5760405162461bcd60e51b81526004016104ca9061195f565b600082815260056020526040812080543492906106099084906119bf565b909155505060408051348152426020820152339184917f16c9641927a0524f7889d76c81384b9ca5b6ff0a3dc7ed0dca8b24e6e03a1dd4910160405180910390a35061065460018055565b50565b61065f611297565b6002546040516334ff670360e11b8152600481018690526000916001600160a01b0316906369fece0690602401600060405180830381865afa1580156106a9573d6000803e3d6000fd5b505050506040513d6000823e601f3d908101601f191682016040526106d19190810190611839565b60408101519091506001600160a01b03166106fe5760405162461bcd60e51b81526004016104ca9061195f565b6040805160a08101825286815260208082018781528284018781526060840187905242608085015260008a815260038452948520805460018181018355918752939095208451600590940201928355905193820193909355915190918291600282019061076b9082611a61565b5060608201516003820155608090910151600490910155600086815260066020526040812080548592906107a09084906119bf565b9250508190555084867fc942176455e3a56332d99888a758b9906b95e7d7964b30a69f1704d230d52c438686426040516107dc93929190611b21565b60405180910390a350506107ef60018055565b50505050565b600254604051633c1ab00f60e01b81526004810183905260609182916000916001600160a01b031690633c1ab00f90602401600060405180830381865afa158015610844573d6000803e3d6000fd5b505050506040513d6000823e601f3d908101601f1916820160405261086c9190810190611b46565b90506000815167ffffffffffffffff81111561088a5761088a6114d3565b6040519080825280602002602001820160405280156108b3578160200160208202803683370190505b5090506000825167ffffffffffffffff8111156108d2576108d26114d3565b6040519080825280602002602001820160405280156108fb578160200160208202803683370190505b5060008781526003602052604090205490915015806109265750600086815260066020526040902054155b156109e35760005b83518110156109d75783818151811061094957610949611c6e565b60200260200101516000015183828151811061096757610967611c6e565b60200260200101906001600160a01b031690816001600160a01b03168152505083818151811061099957610999611c6e565b60200260200101516040015160ff168282815181106109ba576109ba611c6e565b6020908102919091010152806109cf81611c84565b91505061092e565b50909590945092505050565b60005b83518110156109d757838181518110610a0157610a01611c6e565b602002602001015160000151838281518110610a1f57610a1f611c6e565b60200260200101906001600160a01b031690816001600160a01b031681525050838181518110610a5157610a51611c6e565b60200260200101516040015160ff16828281518110610a7257610a72611c6e565b602090810291909101015280610a8781611c84565b9150506109e6565b610a97611297565b60008181526005602052604090205480610b045760405162461bcd60e51b815260206004820152602860248201527f4174747269627574696f6e4d616e616765723a204e6f2070656e64696e6720726044820152676f79616c7469657360c01b60648201526084016104ca565b600254604051633c1ab00f60e01b8152600481018490526000916001600160a01b031690633c1ab00f90602401600060405180830381865afa158015610b4e573d6000803e3d6000fd5b505050506040513d6000823e601f3d908101601f19168201604052610b769190810190611b46565b90506000815111610bd55760405162461bcd60e51b815260206004820152602360248201527f4174747269627574696f6e4d616e616765723a204e6f20636f6e7472696275746044820152626f727360e81b60648201526084016104ca565b600061271060075484610be89190611c9d565b610bf29190611cb4565b90506000610c008285611cd6565b90506000835167ffffffffffffffff811115610c1e57610c1e6114d3565b604051908082528060200260200182016040528015610c47578160200160208202803683370190505b5090506000845167ffffffffffffffff811115610c6657610c666114d3565b604051908082528060200260200182016040528015610c8f578160200160208202803683370190505b5090506000805b8651811015610dc05760006064888381518110610cb557610cb5611c6e565b60200260200101516040015160ff1687610ccf9190611c9d565b610cd99190611cb4565b9050878281518110610ced57610ced611c6e565b6020026020010151600001516001600160a01b03166108fc829081150290604051600060405180830381858888f19350505050158015610d31573d6000803e3d6000fd5b50878281518110610d4457610d44611c6e565b602002602001015160000151858381518110610d6257610d62611c6e565b60200260200101906001600160a01b031690816001600160a01b03168152505080848381518110610d9557610d95611c6e565b6020908102919091010152610daa81846119bf565b9250508080610db890611c84565b915050610c96565b508415610e03576008546040516001600160a01b039091169086156108fc029087906000818181858888f19350505050158015610e01573d6000803e3d6000fd5b505b6000610e0f8286611cd6565b90508015610ec6576002546040516334ff670360e11b8152600481018b90526001600160a01b03909116906369fece0690602401600060405180830381865afa158015610e60573d6000803e3d6000fd5b505050506040513d6000823e601f3d908101601f19168201604052610e889190810190611839565b604001516001600160a01b03166108fc829081150290604051600060405180830381858888f19350505050158015610ec4573d6000803e3d6000fd5b505b6000898152600560208181526040808420849055805160a0810182528d81528083018a81528183018a8152606083018a90524260808401528f875260048552928620805460018181018355918852968590208351979096029095019586555193850193909355518051929384939092610f469260028501929101906112f0565b5060608201518051610f62916003840191602090910190611355565b5060809190910151600490910155604080518781524260208201528b917f92c99e401ef01ae0170c8c2e14de1a872383119a766b191a295ec7f5dd90bba7910160405180910390a250505050505050505061065460018055565b606060036000838152602001908152602001600020805480602002602001604051908101604052809291908181526020016000905b8282101561044157838290600052602060002090600502016040518060a00160405290816000820154815260200160018201548152602001600282018054611038906119d8565b80601f0160208091040260200160405190810160405280929190818152602001828054611064906119d8565b80156110b15780601f10611086576101008083540402835291602001916110b1565b820191906000526020600020905b81548152906001019060200180831161109457829003601f168201915b505050505081526020016003820154815260200160048201548152505081526020019060010190610ff1565b6110e56111ed565b6001600160a01b0381166111555760405162461bcd60e51b815260206004820152603160248201527f4174747269627574696f6e4d616e616765723a20496e76616c69642066656520604482015270636f6c6c6563746f72206164647265737360781b60648201526084016104ca565b600880546001600160a01b0319166001600160a01b0392909216919091179055565b61117f6111ed565b6001600160a01b0381166111e45760405162461bcd60e51b815260206004820152602660248201527f4f776e61626c653a206e6577206f776e657220697320746865207a65726f206160448201526564647265737360d01b60648201526084016104ca565b61065481611247565b6000546001600160a01b0316331461045e5760405162461bcd60e51b815260206004820181905260248201527f4f776e61626c653a2063616c6c6572206973206e6f7420746865206f776e657260448201526064016104ca565b600080546001600160a01b038381166001600160a01b0319831681178455604051919092169283917f8be0079c531659141344cd1fd0a4f28419497f9722a3daafe3b4186f6b6457e09190a35050565b6002600154036112e95760405162461bcd60e51b815260206004820152601f60248201527f5265656e7472616e637947756172643a207265656e7472616e742063616c6c0060448201526064016104ca565b6002600155565b828054828255906000526020600020908101928215611345579160200282015b8281111561134557825182546001600160a01b0319166001600160a01b03909116178255602090920191600190910190611310565b50611351929150611390565b5090565b828054828255906000526020600020908101928215611345579160200282015b82811115611345578251825591602001919060010190611375565b5b808211156113515760008155600101611391565b6000602082840312156113b757600080fd5b5035919050565b600081518084526020808501945080840160005b838110156113ee578151875295820195908201906001016113d2565b509495945050505050565b60006020808301818452808551808352604092508286019150828160051b8701018488016000805b848110156114c457898403603f1901865282518051855288810151898601528781015160a0898701819052815190870181905260c08701918b019085905b808210156114885782516001600160a01b03168452928c0192918c01916001919091019061145f565b505050606080830151878303828901526114a283826113be565b6080948501519890940197909752505095880195935091870191600101611421565b50919998505050505050505050565b634e487b7160e01b600052604160045260246000fd5b604051610120810167ffffffffffffffff8111828210171561150d5761150d6114d3565b60405290565b6040516060810167ffffffffffffffff8111828210171561150d5761150d6114d3565b604051601f8201601f1916810167ffffffffffffffff8111828210171561155f5761155f6114d3565b604052919050565b600067ffffffffffffffff821115611581576115816114d3565b50601f01601f191660200190565b600080600080608085870312156115a557600080fd5b8435935060208501359250604085013567ffffffffffffffff8111156115ca57600080fd5b8501601f810187136115db57600080fd5b80356115ee6115e982611567565b611536565b81815288602083850101111561160357600080fd5b81602084016020830137600091810160200191909152949793965093946060013593505050565b604080825283519082018190526000906020906060840190828701845b8281101561166c5781516001600160a01b031684529284019290840190600101611647565b5050508381038285015284518082528583019183019060005b818110156116a157835183529284019291840191600101611685565b5090979650505050505050565b60005b838110156116c95781810151838201526020016116b1565b50506000910152565b600081518084526116ea8160208601602086016116ae565b601f01601f19169290920160200192915050565b60006020808301818452808551808352604092508286019150828160051b87010184880160005b8381101561178557603f19898403018552815160a081518552888201518986015287820151818987015261175b828701826116d2565b60608481015190880152608093840151939096019290925250509386019390860190600101611725565b509098975050505050505050565b6001600160a01b038116811461065457600080fd5b6000602082840312156117ba57600080fd5b81356117c581611793565b9392505050565b600082601f8301126117dd57600080fd5b81516117eb6115e982611567565b81815284602083860101111561180057600080fd5b6118118260208301602087016116ae565b949350505050565b805161182481611793565b919050565b8051801515811461182457600080fd5b60006020828403121561184b57600080fd5b815167ffffffffffffffff8082111561186357600080fd5b90830190610120828603121561187857600080fd5b6118806114e9565b82518281111561188f57600080fd5b61189b878286016117cc565b8252506020830151828111156118b057600080fd5b6118bc878286016117cc565b6020830152506118ce60408401611819565b6040820152606083015160608201526080830151828111156118ef57600080fd5b6118fb878286016117cc565b60808301525060a08301518281111561191357600080fd5b61191f878286016117cc565b60a08301525061193160c08401611829565b60c082015260e083015160e08201526101009150611950828401611819565b91810191909152949350505050565b6020808252602a908201527f4174747269627574696f6e4d616e616765723a204461746173657420646f6573604082015269081b9bdd08195e1a5cdd60b21b606082015260800190565b634e487b7160e01b600052601160045260246000fd5b808201808211156119d2576119d26119a9565b92915050565b600181811c908216806119ec57607f821691505b602082108103611a0c57634e487b7160e01b600052602260045260246000fd5b50919050565b601f821115611a5c57600081815260208120601f850160051c81016020861015611a395750805b601f850160051c820191505b81811015611a5857828155600101611a45565b5050505b505050565b815167ffffffffffffffff811115611a7b57611a7b6114d3565b611a8f81611a8984546119d8565b84611a12565b602080601f831160018114611ac45760008415611aac5750858301515b600019600386901b1c1916600185901b178555611a58565b600085815260208120601f198616915b82811015611af357888601518255948401946001909101908401611ad4565b5085821015611b115787850151600019600388901b60f8161c191681555b5050505050600190811b01905550565b606081526000611b3460608301866116d2565b60208301949094525060400152919050565b60006020808385031215611b5957600080fd5b825167ffffffffffffffff80821115611b7157600080fd5b818501915085601f830112611b8557600080fd5b815181811115611b9757611b976114d3565b8060051b611ba6858201611536565b9182528381018501918581019089841115611bc057600080fd5b86860192505b83831015611c6157825185811115611bde5760008081fd5b86016060818c03601f1901811315611bf65760008081fd5b611bfe611513565b89830151611c0b81611793565b815260408381015189811115611c215760008081fd5b611c2f8f8d838801016117cc565b838d015250928201519260ff84168414611c4b57600092508283fd5b8101929092525082529186019190860190611bc6565b9998505050505050505050565b634e487b7160e01b600052603260045260246000fd5b600060018201611c9657611c966119a9565b5060010190565b80820281158282048414176119d2576119d26119a9565b600082611cd157634e487b7160e01b600052601260045260246000fd5b500490565b818103818111156119d2576119d26119a956fea2646970667358221220637f33f14a7d4ff69739def45c57c292fe644d81053867f058d6bdeb00e417c364736f6c63430008110033",
  "linkReferences": {},
  "deployedLinkReferences": {}
}