{
  "_format": "hh-sol-artifact-1",
  "contractName": "RoyaltyDistributor",
  "sourceName": "contracts/RoyaltyDistributor.sol",
  "abi": [
    {
      "inputs": [
        {
          "internalType": "address",
          "name": "_datasetRegistry",
          "type": "address"
        },
        {
          "internalType": "address",
          "name": "_platformFeeCollector",
          "type": "address"
        }
      ],
      "stateMutability": "nonpayable",
      "type": "constructor"
    },
    {
      "anonymous": false,
      "inputs": [
        {
          "indexed": true,
          "internalType": "address",
          "name": "previousOwner",
          "type": "address"
        },
        {
          "indexed": true,
          "internalType": "address",
          "name": "newOwner",
          "type": "address"
        }
      ],
      "name": "OwnershipTransferred",
      "type": "event"
    },
    {
      "anonymous": false,
      "inputs": [
        {
          "indexed": false,
          "internalType": "address",
          "name": "feeCollector",
          "type": "address"
        },
        {
          "indexed": false,
          "internalType": "uint256",
          "name": "timestamp",
          "type": "uint256"
        }
      ],
      "name": "PlatformFeeCollectorUpdated",
      "type": "event"
    },
    {
      "anonymous": false,
      "inputs": [
        {
          "indexed": false,
          "internalType": "uint256",
          "name": "feePercentage",
          "type": "uint256"
        },
        {
          "indexed": false,
          "internalType": "uint256",
          "name": "timestamp",
          "type": "uint256"
        }
      ],
      "name": "PlatformFeeUpdated",
      "type": "event"
    },
    {
      "anonymous": false,
      "inputs": [
        {
          "indexed": true,
          "internalType": "address",
          "name": "recipient",
          "type": "address"
        },
        {
          "indexed": false,
          "internalType": "uint256",
          "name": "amount",
          "type": "uint256"
        },
        {
          "indexed": false,
          "internalType": "uint256",
          "name": "timestamp",
          "type": "uint256"
        }
      ],
      "name": "RoyaltyClaimed",
      "type": "event"
    },
    {
      "anonymous": false,
      "inputs": [
        {
          "indexed": true,
          "internalType": "uint256",
          "name": "distributionId",
          "type": "uint256"
        },
        {
          "indexed": true,
          "internalType": "uint256",
          "name": "datasetId",
          "type": "uint256"
        },
        {
          "indexed": false,
          "internalType": "uint256",
          "name": "totalAmount",
          "type": "uint256"
        },
        {
          "indexed": false,
          "internalType": "uint256",
          "name": "timestamp",
          "type": "uint256"
        }
      ],
      "name": "RoyaltyDistributed",
      "type": "event"
    },
    {
      "anonymous": false,
      "inputs": [
        {
          "indexed": true,
          "internalType": "uint256",
          "name": "datasetId",
          "type": "uint256"
        },
        {
          "indexed": true,
          "internalType": "address",
          "name": "payer",
          "type": "address"
        },
        {
          "indexed": false,
          "internalType": "uint256",
          "name": "amount",
          "type": "uint256"
        },
        {
          "indexed": false,
          "internalType": "uint256",
          "name": "timestamp",
          "type": "uint256"
        }
      ],
      "name": "RoyaltyReceived",
      "type": "event"
    },
    {
      "inputs": [],
      "name": "claimRoyalties",
      "outputs": [],
      "stateMutability": "nonpayable",
      "type": "function"
    },
    {
      "inputs": [],
      "name": "datasetRegistry",
      "outputs": [
        {
          "internalType": "contract IDatasetRegistry",
          "name": "",
          "type": "address"
        }
      ],
      "stateMutability": "view",
      "type": "function"
    },
    {
      "inputs": [
        {
          "internalType": "uint256",
          "name": "datasetId",
          "type": "uint256"
        }
      ],
      "name": "getDatasetDistributions",
      "outputs": [
        {
          "internalType": "uint256[]",
          "name": "",
          "type": "uint256[]"
        }
      ],
      "stateMutability": "view",
      "type": "function"
    },
    {
      "inputs": [
        {
          "internalType": "uint256",
          "name": "distributionId",
          "type": "uint256"
        }
      ],
      "name": "getDistribution",
      "outputs": [
        {
          "components": [
            {
              "internalType": "uint256",
              "name": "datasetId",
              "type": "uint256"
            },
            {
              "internalType": "uint256",
              "name": "totalAmount",
              "type": "uint256"
            },
            {
              "internalType": "address[]",
              "name": "recipients",
              "type": "address[]"
            },
            {
              "internalType": "uint256[]",
              "name": "amounts",
              "type": "uint256[]"
            },
            {
              "internalType": "uint256",
              "name": "distributionTime",
              "type": "uint256"
            }
          ],
          "internalType": "struct DataTypes.RoyaltyDistribution",
          "name": "",
          "type": "tuple"
        }
      ],
      "stateMutability": "view",
      "type": "function"
    },
    {
      "inputs": [
        {
          "internalType": "address",
          "name": "recipient",
          "type": "address"
        }
      ],
      "name": "getPendingRoyalties",
      "outputs": [
        {
          "internalType": "uint256",
          "name": "",
          "type": "uint256"
        }
      ],
      "stateMutability": "view",
      "type": "function"
    },
    {
      "inputs": [
        {
          "internalType": "uint256",
          "name": "datasetId",
          "type": "uint256"
        }
      ],
      "name": "getTotalDistributed",
      "outputs": [
        {
          "internalType": "uint256",
          "name": "",
          "type": "uint256"
        }
      ],
      "stateMutability": "view",
      "type": "function"
    },
    {
      "inputs": [],
      "name": "owner",
      "outputs": [
        {
          "internalType": "address",
          "name": "",
          "type": "address"
        }
      ],
      "stateMutability": "view",
      "type": "function"
    },
    {
      "inputs": [
        {
          "internalType": "uint256",
          "name": "datasetId",
          "type": "uint256"
        }
      ],
      "name": "payRoyalties",
      "outputs": [],
      "stateMutability": "payable",
      "type": "function"
    },
    {
      "inputs": [],
      "name": "platformFeeCollector",
      "outputs": [
        {
          "internalType": "address",
          "name": "",
          "type": "address"
        }
      ],
      "stateMutability": "view",
      "type": "function"
    },
    {
      "inputs": [],
      "name": "platformFeePercentage",
      "outputs": [
        {
          "internalType": "uint256",
          "name": "",
          "type": "uint256"
        }
      ],
      "stateMutability": "view",
      "type": "function"
    },
    {
      "inputs": [],
      "name": "renounceOwnership",
      "outputs": [],
      "stateMutability": "nonpayable",
      "type": "function"
    },
    {
      "inputs": [
        {
          "internalType": "address",
          "name": "_platformFeeCollector",
          "type": "address"
        }
      ],
      "name": "setPlatformFeeCollector",
      "outputs": [],
      "stateMutability": "nonpayable",
      "type": "function"
    },
    {
      "inputs": [
        {
          "internalType": "uint256",
          "name": "_feePercentage",
          "type": "uint256"
        }
      ],
      "name": "setPlatformFeePercentage",
      "outputs": [],
      "stateMutability": "nonpayable",
      "type": "function"
    },
    {
      "inputs": [
        {
          "internalType": "address",
          "name": "newOwner",
          "type": "address"
        }
      ],
      "name": "transferOwnership",
      "outputs": [],
      "stateMutability": "nonpayable",
      "type": "function"
    }
  ],
  "bytecode": "0x608060405260fa6007553480156200001657600080fd5b5060405162001832380380620018328339810160408190526200003991620001db565b62000044336200016e565b600180556001600160a01b038216620000ca5760405162461bcd60e51b815260206004820152603460248201527f526f79616c74794469737472696275746f723a20496e76616c6964206461746160448201527f736574207265676973747279206164647265737300000000000000000000000060648201526084015b60405180910390fd5b6001600160a01b0381166200013c5760405162461bcd60e51b815260206004820152603160248201527f526f79616c74794469737472696275746f723a20496e76616c69642066656520604482015270636f6c6c6563746f72206164647265737360781b6064820152608401620000c1565b600380546001600160a01b039384166001600160a01b0319918216179091556008805492909316911617905562000213565b600080546001600160a01b038381166001600160a01b0319831681178455604051919092169283917f8be0079c531659141344cd1fd0a4f28419497f9722a3daafe3b4186f6b6457e09190a35050565b80516001600160a01b0381168114620001d657600080fd5b919050565b60008060408385031215620001ef57600080fd5b620001fa83620001be565b91506200020a60208401620001be565b90509250929050565b61160f80620002236000396000f3fe6080604052600436106100dd5760003560e01c8063853a65f91161007f578063b0b4594b11610059578063b0b4594b1461025a578063cdd78cfc1461027a578063dfc90cf214610290578063f2fde38b146102b057600080fd5b8063853a65f914610209578063890d5b64146102295780638da5cb5b1461023c57600080fd5b80633b345a87116100bb5780633b345a871461017a5780635ad25952146101a7578063715018a6146101d45780638333903e146101e957600080fd5b8063024fa0d6146100e2578063069b78201461012b5780633235ad1314610142575b600080fd5b3480156100ee57600080fd5b506101186100fd366004611087565b6001600160a01b031660009081526006602052604090205490565b6040519081526020015b60405180910390f35b34801561013757600080fd5b506101406102d0565b005b34801561014e57600080fd5b50600354610162906001600160a01b031681565b6040516001600160a01b039091168152602001610122565b34801561018657600080fd5b5061019a6101953660046110ab565b6103cd565b60405161012291906110ff565b3480156101b357600080fd5b506101c76101c23660046110ab565b6104ed565b604051610122919061119b565b3480156101e057600080fd5b5061014061054f565b3480156101f557600080fd5b506101406102043660046110ab565b610561565b34801561021557600080fd5b50600854610162906001600160a01b031681565b6101406102373660046110ab565b610610565b34801561024857600080fd5b506000546001600160a01b0316610162565b34801561026657600080fd5b506101186102753660046110ab565b6107b9565b34801561028657600080fd5b5061011860075481565b34801561029c57600080fd5b506101406102ab366004611087565b610877565b3480156102bc57600080fd5b506101406102cb366004611087565b610942565b6102d86109b8565b336000908152600660205260409020548061034b5760405162461bcd60e51b815260206004820152602860248201527f526f79616c74794469737472696275746f723a204e6f2070656e64696e6720726044820152676f79616c7469657360c01b60648201526084015b60405180910390fd5b336000818152600660205260408082208290555183156108fc0291849190818181858888f19350505050158015610386573d6000803e3d6000fd5b506040805182815242602082015233917f6fe778711f06ca052305b633ba1b304f4d71c1523776f2aa3059d8d99f5420de910160405180910390a2506103cb60018055565b565b6103ff6040518060a0016040528060008152602001600081526020016060815260200160608152602001600081525090565b600082815260046020908152604091829020825160a081018452815481526001820154818401526002820180548551818602810186018752818152929593949386019383018282801561047b57602002820191906000526020600020905b81546001600160a01b0316815260019091019060200180831161045d575b50505050508152602001600382018054806020026020016040519081016040528092919081815260200182805480156104d357602002820191906000526020600020905b8154815260200190600101908083116104bf575b505050505081526020016004820154815250509050919050565b60008181526005602090815260409182902080548351818402810184019094528084526060939283018282801561054357602002820191906000526020600020905b81548152602001906001019080831161052f575b50505050509050919050565b610557610a11565b6103cb6000610a6b565b610569610a11565b6103e88111156105cf5760405162461bcd60e51b815260206004820152602b60248201527f526f79616c74794469737472696275746f723a204665652070657263656e746160448201526a0ceca40e8dede40d0d2ced60ab1b6064820152608401610342565b6007819055604080518281524260208201527fd347e206f25a89b917fc9482f1a2d294d749baa4dc9bde7fb495ee11fe49164391015b60405180910390a150565b6106186109b8565b600034116106845760405162461bcd60e51b815260206004820152603360248201527f526f79616c74794469737472696275746f723a205061796d656e7420616d6f756044820152726e74206d75737420626520706f73697469766560681b6064820152608401610342565b6003546040516334ff670360e11b8152600481018390526000916001600160a01b0316906369fece0690602401600060405180830381865afa1580156106ce573d6000803e3d6000fd5b505050506040513d6000823e601f3d908101601f191682016040526106f691908101906112e7565b60408101519091506001600160a01b03166107665760405162461bcd60e51b815260206004820152602a60248201527f526f79616c74794469737472696275746f723a204461746173657420646f6573604482015269081b9bdd08195e1a5cdd60b21b6064820152608401610342565b60408051348152426020820152339184917f372c1e977ae03fd386ff5f797b927c8458555f8a34e7ee31f6b18e1851c3efa1910160405180910390a36107ac8234610abb565b506107b660018055565b50565b60008181526005602090815260408083208054825181850281018501909352808352849383018282801561080c57602002820191906000526020600020905b8154815260200190600101908083116107f8575b505050505090506000805b825181101561086f57600460008483815181106108365761083661140d565b60200260200101518152602001908152602001600020600101548261085b9190611439565b9150806108678161144c565b915050610817565b509392505050565b61087f610a11565b6001600160a01b0381166108ef5760405162461bcd60e51b815260206004820152603160248201527f526f79616c74794469737472696275746f723a20496e76616c69642066656520604482015270636f6c6c6563746f72206164647265737360781b6064820152608401610342565b600880546001600160a01b0319166001600160a01b038316908117909155604080519182524260208301527f8c0c54032a3fe8982548aab54f43043ad61d05a2cf4d571c717a275092bcb27a9101610605565b61094a610a11565b6001600160a01b0381166109af5760405162461bcd60e51b815260206004820152602660248201527f4f776e61626c653a206e6577206f776e657220697320746865207a65726f206160448201526564647265737360d01b6064820152608401610342565b6107b681610a6b565b600260015403610a0a5760405162461bcd60e51b815260206004820152601f60248201527f5265656e7472616e637947756172643a207265656e7472616e742063616c6c006044820152606401610342565b6002600155565b6000546001600160a01b031633146103cb5760405162461bcd60e51b815260206004820181905260248201527f4f776e61626c653a2063616c6c6572206973206e6f7420746865206f776e65726044820152606401610342565b600080546001600160a01b038381166001600160a01b0319831681178455604051919092169283917f8be0079c531659141344cd1fd0a4f28419497f9722a3daafe3b4186f6b6457e09190a35050565b6000610ac982600754610d80565b90506000610ad78284611465565b600354604051633c1ab00f60e01b8152600481018790529192506000916001600160a01b0390911690633c1ab00f90602401600060405180830381865afa158015610b26573d6000803e3d6000fd5b505050506040513d6000823e601f3d908101601f19168201604052610b4e9190810190611478565b90506000815111610bad5760405162461bcd60e51b815260206004820152602360248201527f526f79616c74794469737472696275746f723a204e6f20636f6e7472696275746044820152626f727360e81b6064820152608401610342565b600080610bba8385610da2565b91509150610bcc600280546001019055565b6000610bd760025490565b90506000610be789878686610f63565b600083815260046020908152604091829020835181558184015160018201559183015180519394508493610c219260028501920190610fbd565b5060608201518051610c3d916003840191602090910190611022565b5060809190910151600490910155600089815260056020908152604082208054600181018255908352908220018390555b8451811015610cf657838181518110610c8957610c8961140d565b602002602001015160066000878481518110610ca757610ca761140d565b60200260200101516001600160a01b03166001600160a01b031681526020019081526020016000206000828254610cde9190611439565b90915550819050610cee8161144c565b915050610c6e565b508615610d39576008546040516001600160a01b039091169088156108fc029089906000818181858888f19350505050158015610d37573d6000803e3d6000fd5b505b604080518781524260208201528a9184917f47b6546148fa5d96118443cd143cf54cecb624fb20c2e3a0306833ee0fffcbde910160405180910390a3505050505050505050565b6000612710610d8f83856115a0565b610d9991906115b7565b90505b92915050565b6060806000845167ffffffffffffffff811115610dc157610dc16111ae565b604051908082528060200260200182016040528015610dea578160200160208202803683370190505b5090506000855167ffffffffffffffff811115610e0957610e096111ae565b604051908082528060200260200182016040528015610e32578160200160208202803683370190505b5090506000805b8751811015610f0c5760006064898381518110610e5857610e5861140d565b60200260200101516040015160ff1689610e7291906115a0565b610e7c91906115b7565b9050888281518110610e9057610e9061140d565b602002602001015160000151858381518110610eae57610eae61140d565b60200260200101906001600160a01b031690816001600160a01b03168152505080848381518110610ee157610ee161140d565b6020908102919091010152610ef68184611439565b9250508080610f049061144c565b915050610e39565b508581108015610f1d575060008751115b15610f5757610f2c8187611465565b82600081518110610f3f57610f3f61140d565b60200260200101818151610f539190611439565b9052505b50909590945092505050565b610f956040518060a0016040528060008152602001600081526020016060815260200160608152602001600081525090565b506040805160a081018252948552602085019390935291830152606082015242608082015290565b828054828255906000526020600020908101928215611012579160200282015b8281111561101257825182546001600160a01b0319166001600160a01b03909116178255602090920191600190910190610fdd565b5061101e92915061105d565b5090565b828054828255906000526020600020908101928215611012579160200282015b82811115611012578251825591602001919060010190611042565b5b8082111561101e576000815560010161105e565b6001600160a01b03811681146107b657600080fd5b60006020828403121561109957600080fd5b81356110a481611072565b9392505050565b6000602082840312156110bd57600080fd5b5035919050565b600081518084526020808501945080840160005b838110156110f4578151875295820195908201906001016110d8565b509495945050505050565b6000602080835260c08301845182850152818501516040850152604085015160a0606086015281815180845260e0870191508483019350600092505b808310156111645783516001600160a01b0316825292840192600192909201919084019061113b565b506060870151868203601f19016080880152935061118281856110c4565b9350505050608084015160a08401528091505092915050565b602081526000610d9960208301846110c4565b634e487b7160e01b600052604160045260246000fd5b604051610120810167ffffffffffffffff811182821017156111e8576111e86111ae565b60405290565b6040516060810167ffffffffffffffff811182821017156111e8576111e86111ae565b604051601f8201601f1916810167ffffffffffffffff8111828210171561123a5761123a6111ae565b604052919050565b600082601f83011261125357600080fd5b815167ffffffffffffffff81111561126d5761126d6111ae565b6020611281601f8301601f19168201611211565b828152858284870101111561129557600080fd5b60005b838110156112b3578581018301518282018401528201611298565b506000928101909101919091529392505050565b80516112d281611072565b919050565b805180151581146112d257600080fd5b6000602082840312156112f957600080fd5b815167ffffffffffffffff8082111561131157600080fd5b90830190610120828603121561132657600080fd5b61132e6111c4565b82518281111561133d57600080fd5b61134987828601611242565b82525060208301518281111561135e57600080fd5b61136a87828601611242565b60208301525061137c604084016112c7565b60408201526060830151606082015260808301518281111561139d57600080fd5b6113a987828601611242565b60808301525060a0830151828111156113c157600080fd5b6113cd87828601611242565b60a0830152506113df60c084016112d7565b60c082015260e083015160e082015261010091506113fe8284016112c7565b91810191909152949350505050565b634e487b7160e01b600052603260045260246000fd5b634e487b7160e01b600052601160045260246000fd5b80820180821115610d9c57610d9c611423565b60006001820161145e5761145e611423565b5060010190565b81810381811115610d9c57610d9c611423565b6000602080838503121561148b57600080fd5b825167ffffffffffffffff808211156114a357600080fd5b818501915085601f8301126114b757600080fd5b8151818111156114c9576114c96111ae565b8060051b6114d8858201611211565b91825283810185019185810190898411156114f257600080fd5b86860192505b83831015611593578251858111156115105760008081fd5b86016060818c03601f19018113156115285760008081fd5b6115306111ee565b8983015161153d81611072565b8152604083810151898111156115535760008081fd5b6115618f8d83880101611242565b838d015250928201519260ff8416841461157d57600092508283fd5b81019290925250825291860191908601906114f8565b9998505050505050505050565b8082028115828204841417610d9c57610d9c611423565b6000826115d457634e487b7160e01b600052601260045260246000fd5b50049056fea26469706673582212202d874fe30f0c075ad501febfb4a05c09d73f573ed117f4b669c1b161ea64258a64736f6c63430008110033",
  "linkReferences": {},
  "deployedLinkReferences": {}
}