{
  "_format": "hh-sol-artifact-1",
  "contractName": "FilecoinDealClient",
  "sourceName": "contracts/FilecoinDealClient.sol",
  "abi": [
    {
      "inputs": [],
      "stateMutability": "nonpayable",
      "type": "constructor"
    },
    {
      "inputs": [
        {
          "internalType": "int256",
          "name": "errorCode",
          "type": "int256"
        }
      ],
      "name": "ActorError",
      "type": "error"
    },
    {
      "inputs": [],
      "name": "ActorNotFound",
      "type": "error"
    },
    {
      "inputs": [],
      "name": "FailToCallActor",
      "type": "error"
    },
    {
      "inputs": [
        {
          "internalType": "uint64",
          "name": "",
          "type": "uint64"
        }
      ],
      "name": "InvalidCodec",
      "type": "error"
    },
    {
      "inputs": [],
      "name": "InvalidResponseLength",
      "type": "error"
    },
    {
      "inputs": [
        {
          "internalType": "uint256",
          "name": "balance",
          "type": "uint256"
        },
        {
          "internalType": "uint256",
          "name": "value",
          "type": "uint256"
        }
      ],
      "name": "NotEnoughBalance",
      "type": "error"
    },
    {
      "anonymous": false,
      "inputs": [
        {
          "indexed": true,
          "internalType": "bytes32",
          "name": "id",
          "type": "bytes32"
        },
        {
          "indexed": false,
          "internalType": "uint64",
          "name": "dealId",
          "type": "uint64"
        },
        {
          "indexed": false,
          "internalType": "uint256",
          "name": "timestamp",
          "type": "uint256"
        }
      ],
      "name": "DealActivated",
      "type": "event"
    },
    {
      "anonymous": false,
      "inputs": [
        {
          "indexed": true,
          "internalType": "bytes32",
          "name": "id",
          "type": "bytes32"
        },
        {
          "indexed": false,
          "internalType": "string",
          "name": "cid",
          "type": "string"
        },
        {
          "indexed": false,
          "internalType": "uint64",
          "name": "size",
          "type": "uint64"
        },
        {
          "indexed": false,
          "internalType": "uint256",
          "name": "timestamp",
          "type": "uint256"
        }
      ],
      "name": "DealProposalCreated",
      "type": "event"
    },
    {
      "anonymous": false,
      "inputs": [
        {
          "indexed": true,
          "internalType": "bytes32",
          "name": "id",
          "type": "bytes32"
        },
        {
          "indexed": false,
          "internalType": "uint64",
          "name": "dealId",
          "type": "uint64"
        },
        {
          "indexed": false,
          "internalType": "string",
          "name": "provider",
          "type": "string"
        },
        {
          "indexed": false,
          "internalType": "uint256",
          "name": "timestamp",
          "type": "uint256"
        }
      ],
      "name": "DealPublished",
      "type": "event"
    },
    {
      "anonymous": false,
      "inputs": [
        {
          "indexed": true,
          "internalType": "bytes32",
          "name": "id",
          "type": "bytes32"
        },
        {
          "indexed": false,
          "internalType": "uint64",
          "name": "dealId",
          "type": "uint64"
        },
        {
          "indexed": false,
          "internalType": "uint256",
          "name": "timestamp",
          "type": "uint256"
        }
      ],
      "name": "DealTerminated",
      "type": "event"
    },
    {
      "anonymous": false,
      "inputs": [
        {
          "indexed": true,
          "internalType": "address",
          "name": "sender",
          "type": "address"
        },
        {
          "indexed": false,
          "internalType": "uint256",
          "name": "amount",
          "type": "uint256"
        },
        {
          "indexed": false,
          "internalType": "uint256",
          "name": "timestamp",
          "type": "uint256"
        }
      ],
      "name": "FundsAdded",
      "type": "event"
    },
    {
      "anonymous": false,
      "inputs": [
        {
          "indexed": true,
          "internalType": "address",
          "name": "receiver",
          "type": "address"
        },
        {
          "indexed": false,
          "internalType": "uint256",
          "name": "amount",
          "type": "uint256"
        },
        {
          "indexed": false,
          "internalType": "uint256",
          "name": "timestamp",
          "type": "uint256"
        }
      ],
      "name": "FundsWithdrawn",
      "type": "event"
    },
    {
      "anonymous": false,
      "inputs": [
        {
          "indexed": true,
          "internalType": "address",
          "name": "previousOwner",
          "type": "address"
        },
        {
          "indexed": true,
          "internalType": "address",
          "name": "newOwner",
          "type": "address"
        }
      ],
      "name": "OwnershipTransferred",
      "type": "event"
    },
    {
      "inputs": [],
      "name": "AUTHENTICATE_MESSAGE_METHOD_NUM",
      "outputs": [
        {
          "internalType": "uint64",
          "name": "",
          "type": "uint64"
        }
      ],
      "stateMutability": "view",
      "type": "function"
    },
    {
      "inputs": [],
      "name": "MARKET_NOTIFY_DEAL_METHOD_NUM",
      "outputs": [
        {
          "internalType": "uint64",
          "name": "",
          "type": "uint64"
        }
      ],
      "stateMutability": "view",
      "type": "function"
    },
    {
      "inputs": [],
      "name": "addFunds",
      "outputs": [],
      "stateMutability": "payable",
      "type": "function"
    },
    {
      "inputs": [
        {
          "internalType": "bytes32",
          "name": "dealId",
          "type": "bytes32"
        }
      ],
      "name": "checkDealStatus",
      "outputs": [
        {
          "internalType": "uint8",
          "name": "",
          "type": "uint8"
        }
      ],
      "stateMutability": "nonpayable",
      "type": "function"
    },
    {
      "inputs": [
        {
          "internalType": "string",
          "name": "",
          "type": "string"
        }
      ],
      "name": "cidStatus",
      "outputs": [
        {
          "internalType": "uint8",
          "name": "",
          "type": "uint8"
        }
      ],
      "stateMutability": "view",
      "type": "function"
    },
    {
      "inputs": [
        {
          "internalType": "string",
          "name": "",
          "type": "string"
        },
        {
          "internalType": "uint256",
          "name": "",
          "type": "uint256"
        }
      ],
      "name": "cidToDealIds",
      "outputs": [
        {
          "internalType": "bytes32",
          "name": "",
          "type": "bytes32"
        }
      ],
      "stateMutability": "view",
      "type": "function"
    },
    {
      "inputs": [
        {
          "internalType": "string",
          "name": "",
          "type": "string"
        },
        {
          "internalType": "uint256",
          "name": "",
          "type": "uint256"
        }
      ],
      "name": "cidToProviders",
      "outputs": [
        {
          "internalType": "string",
          "name": "",
          "type": "string"
        }
      ],
      "stateMutability": "view",
      "type": "function"
    },
    {
      "inputs": [
        {
          "internalType": "bytes32",
          "name": "",
          "type": "bytes32"
        }
      ],
      "name": "dealIdToFilecoinDealId",
      "outputs": [
        {
          "internalType": "uint64",
          "name": "",
          "type": "uint64"
        }
      ],
      "stateMutability": "view",
      "type": "function"
    },
    {
      "inputs": [
        {
          "internalType": "bytes32",
          "name": "",
          "type": "bytes32"
        }
      ],
      "name": "dealRequestIdx",
      "outputs": [
        {
          "internalType": "uint256",
          "name": "",
          "type": "uint256"
        }
      ],
      "stateMutability": "view",
      "type": "function"
    },
    {
      "inputs": [
        {
          "internalType": "uint256",
          "name": "",
          "type": "uint256"
        }
      ],
      "name": "dealRequests",
      "outputs": [
        {
          "internalType": "uint256",
          "name": "datasetId",
          "type": "uint256"
        },
        {
          "internalType": "string",
          "name": "dealCid",
          "type": "string"
        },
        {
          "internalType": "uint64",
          "name": "dealId",
          "type": "uint64"
        },
        {
          "internalType": "string",
          "name": "provider",
          "type": "string"
        },
        {
          "internalType": "uint256",
          "name": "startTime",
          "type": "uint256"
        },
        {
          "internalType": "uint256",
          "name": "endTime",
          "type": "uint256"
        },
        {
          "internalType": "uint256",
          "name": "size",
          "type": "uint256"
        },
        {
          "internalType": "bool",
          "name": "isActive",
          "type": "bool"
        }
      ],
      "stateMutability": "view",
      "type": "function"
    },
    {
      "inputs": [
        {
          "internalType": "bytes32",
          "name": "dealId",
          "type": "bytes32"
        }
      ],
      "name": "getDealInfo",
      "outputs": [
        {
          "components": [
            {
              "internalType": "uint256",
              "name": "datasetId",
              "type": "uint256"
            },
            {
              "internalType": "string",
              "name": "dealCid",
              "type": "string"
            },
            {
              "internalType": "uint64",
              "name": "dealId",
              "type": "uint64"
            },
            {
              "internalType": "string",
              "name": "provider",
              "type": "string"
            },
            {
              "internalType": "uint256",
              "name": "startTime",
              "type": "uint256"
            },
            {
              "internalType": "uint256",
              "name": "endTime",
              "type": "uint256"
            },
            {
              "internalType": "uint256",
              "name": "size",
              "type": "uint256"
            },
            {
              "internalType": "bool",
              "name": "isActive",
              "type": "bool"
            }
          ],
          "internalType": "struct DataTypes.StorageDeal",
          "name": "",
          "type": "tuple"
        }
      ],
      "stateMutability": "view",
      "type": "function"
    },
    {
      "inputs": [
        {
          "internalType": "string",
          "name": "cid",
          "type": "string"
        }
      ],
      "name": "getDealsByCID",
      "outputs": [
        {
          "internalType": "bytes32[]",
          "name": "",
          "type": "bytes32[]"
        }
      ],
      "stateMutability": "view",
      "type": "function"
    },
    {
      "inputs": [
        {
          "internalType": "uint64",
          "name": "method",
          "type": "uint64"
        },
        {
          "internalType": "uint64",
          "name": "",
          "type": "uint64"
        },
        {
          "internalType": "bytes",
          "name": "params",
          "type": "bytes"
        }
      ],
      "name": "handle_filecoin_method",
      "outputs": [
        {
          "internalType": "uint32",
          "name": "",
          "type": "uint32"
        },
        {
          "internalType": "uint64",
          "name": "",
          "type": "uint64"
        },
        {
          "internalType": "bytes",
          "name": "",
          "type": "bytes"
        }
      ],
      "stateMutability": "nonpayable",
      "type": "function"
    },
    {
      "inputs": [
        {
          "internalType": "string",
          "name": "cid",
          "type": "string"
        },
        {
          "internalType": "uint64",
          "name": "size",
          "type": "uint64"
        },
        {
          "internalType": "bool",
          "name": "",
          "type": "bool"
        },
        {
          "internalType": "int64",
          "name": "startEpoch",
          "type": "int64"
        },
        {
          "internalType": "int64",
          "name": "endEpoch",
          "type": "int64"
        },
        {
          "internalType": "uint256",
          "name": "",
          "type": "uint256"
        }
      ],
      "name": "makeDealProposal",
      "outputs": [
        {
          "internalType": "bytes32",
          "name": "",
          "type": "bytes32"
        }
      ],
      "stateMutability": "nonpayable",
      "type": "function"
    },
    {
      "inputs": [],
      "name": "owner",
      "outputs": [
        {
          "internalType": "address",
          "name": "",
          "type": "address"
        }
      ],
      "stateMutability": "view",
      "type": "function"
    },
    {
      "inputs": [],
      "name": "renounceOwnership",
      "outputs": [],
      "stateMutability": "nonpayable",
      "type": "function"
    },
    {
      "inputs": [
        {
          "internalType": "address",
          "name": "newOwner",
          "type": "address"
        }
      ],
      "name": "transferOwnership",
      "outputs": [],
      "stateMutability": "nonpayable",
      "type": "function"
    },
    {
      "inputs": [
        {
          "internalType": "uint256",
          "name": "amount",
          "type": "uint256"
        }
      ],
      "name": "withdrawFunds",
      "outputs": [],
      "stateMutability": "nonpayable",
      "type": "function"
    },
    {
      "stateMutability": "payable",
      "type": "receive"
    }
  ],
  "bytecode": "0x608060405234801561001057600080fd5b5061001a33610023565b60018055610073565b600080546001600160a01b038381166001600160a01b0319831681178455604051919092169283917f8be0079c531659141344cd1fd0a4f28419497f9722a3daafe3b4186f6b6457e09190a35050565b61320a80620000836000396000f3fe60806040526004361061010c5760003560e01c80637ee1ddf811610095578063a077298911610064578063a077298914610385578063a26759cb146103a5578063bad79de9146103ad578063f2c8c47b146103e1578063f2fde38b1461040e57600080fd5b80637ee1ddf8146102e1578063868e10c41461030e5780638da5cb5b1461033d5780639a03d9441461036557600080fd5b806334beaa4e116100dc57806334beaa4e14610204578063577d81b51461023a57806358afab33146102875780636067f454146102b4578063715018a6146102cc57600080fd5b806270679014610152578063155dd5ee146101875780631adf7eb1146101a957806333cf9e2e146101e457600080fd5b3661014d576040805134815242602082015233917f92023dd282de3eea749a3a27a58271d70f04c1f7905fce2e1996ec9bdfccf33b910160405180910390a2005b600080fd5b34801561015e57600080fd5b5061016a639d8b067881565b6040516001600160401b0390911681526020015b60405180910390f35b34801561019357600080fd5b506101a76101a23660046127a9565b61042e565b005b3480156101b557600080fd5b506101d66101c43660046127a9565b60026020526000908152604090205481565b60405190815260200161017e565b3480156101f057600080fd5b506101d66101ff36600461288d565b6105a3565b34801561021057600080fd5b5061016a61021f3660046127a9565b6007602052600090815260409020546001600160401b031681565b34801561024657600080fd5b506102756102553660046128d1565b805160208183018101805160068252928201919093012091525460ff1681565b60405160ff909116815260200161017e565b34801561029357600080fd5b506102a76102a23660046128d1565b6105e3565b60405161017e9190612905565b3480156102c057600080fd5b5061016a63f98c996681565b3480156102d857600080fd5b506101a7610653565b3480156102ed57600080fd5b506103016102fc36600461288d565b610667565b60405161017e9190612999565b34801561031a57600080fd5b5061032e6103293660046129c1565b61072f565b60405161017e93929190612a36565b34801561034957600080fd5b506000546040516001600160a01b03909116815260200161017e565b34801561037157600080fd5b506101d6610380366004612a7b565b6107f6565b34801561039157600080fd5b506102756103a03660046127a9565b610aaf565b6101a7610cd8565b3480156103b957600080fd5b506103cd6103c83660046127a9565b610d55565b60405161017e989796959493929190612b0b565b3480156103ed57600080fd5b506104016103fc3660046127a9565b610ecc565b60405161017e9190612b72565b34801561041a57600080fd5b506101a7610429366004612c08565b611105565b61043661117b565b61043e6111d5565b600081116104675760405162461bcd60e51b815260040161045e90612c31565b60405180910390fd5b6000604051806040016040528061047d3061122e565b815260200160405180604001604052806104968661127d565b81526000602090910181905291529091506104b082611385565b80519091506000805b82518110156105115760308382815181106104d6576104d6612c7c565b016020015160f81c6104e984600a612ca8565b6104f39190612cbf565b6104fd9190612cd2565b91508061050981612ce5565b9150506104b9565b50600080546040516001600160a01b039091169183156108fc02918491818181858888f1935050505015801561054b573d6000803e3d6000fd5b50600054604080518381524260208201526001600160a01b03909216917ffbc3a599b784fe88772fc5abcc07223f64ca0b13acc341f4fb1e46bef0510eb4910160405180910390a2505050506105a060018055565b50565b815160208184018101805160048252928201918501919091209190528054829081106105ce57600080fd5b90600052602060002001600091509150505481565b60606004826040516105f59190612cfe565b908152604080519182900360209081018320805480830285018301909352828452919083018282801561064757602002820191906000526020600020905b815481526020019060010190808311610633575b50505050509050919050565b61065b61117b565b61066560006113c9565b565b8151602081840181018051600582529282019185019190912091905280548290811061069257600080fd5b906000526020600020016000915091505080546106ae90612d1a565b80601f01602080910402602001604051908101604052809291908181526020018280546106da90612d1a565b80156107275780601f106106fc57610100808354040283529160200191610727565b820191906000526020600020905b81548152906001019060200180831161070a57829003601f168201915b505050505081565b60008060608082639d8b0677196001600160401b0389160161076c5750506040805180820190915260018152607b60f91b602082015260516107e6565b63f98c9965196001600160401b0389160161078f5761078a86611419565b6107e6565b60405162461bcd60e51b815260206004820152602660248201527f46696c65636f696e4465616c436c69656e743a20556e737570706f72746564206044820152651b595d1a1bd960d21b606482015260840161045e565b6000989097509095509350505050565b60006108006111d5565b600354604080514260208201526bffffffffffffffffffffffff193360601b1691810191909152605481019190915260009060740160408051601f19818403018152828252805160209182012060035460008281526002845284812091909155610100850184528085528483018d90528484018190528351928301909352828252606084019190915292509060808101600788900b83136108a4578760070b6108a7565b60005b815260200160008760070b126108c0578660070b6108c3565b60005b81526001600160401b038a1660208083019190915260006040909201829052600380546001810182559252825160089092027fc2575a0e9e593c00f959f8c92f12db2869c3395a3b0502d05e2516446f71f85b81019283559083015192935083927fc2575a0e9e593c00f959f8c92f12db2869c3395a3b0502d05e2516446f71f85c909101906109539082612da2565b50604082015160028201805467ffffffffffffffff19166001600160401b039092169190911790556060820151600382019061098f9082612da2565b50608082015160048281019190915560a0830151600583015560c0830151600683015560e0909201516007909101805460ff19169115159190911790556040516109da908b90612cfe565b90815260405190819003602090810182208054600181018255600091825291902001839055600690610a0d908b90612cfe565b9081526040519081900360200190205460ff16600003610a5d57600160068a604051610a399190612cfe565b908152604051908190036020019020805460ff9290921660ff199092169190911790555b817fed4ece8a48a81c5c54e79c7f47e2f02718a80d839764192d873ca8cdc19932f58a8a42604051610a9193929190612e61565b60405180910390a2509050610aa560018055565b9695505050505050565b600354600082815260026020526040812054909111610ae05760405162461bcd60e51b815260040161045e90612e8f565b6000828152600260205260408120546003805491929183908110610b0657610b06612c7c565b60009182526020909120600890910201600781015490915060ff16158015610b4457506000848152600760205260409020546001600160401b031615155b15610caa576000848152600760205260408120546001600160401b031690610b6b8261162c565b90506000816020015160070b1315610c0a5760078301805460ff19169055604051600490600690610ba0906001870190612ed1565b9081526040805160209281900383018120805460ff191660ff95909516949094179093556001600160401b0385168352429183019190915287917f40bbce9843f93b3d7af9fb7c5ee387e2a708b6c2f99ef07a4100ef9b32fbc66e910160405180910390a2610ca7565b6000816000015160070b1315610ca75760078301805460ff19166001908117909155604051600391600691610c4191870190612ed1565b9081526040805160209281900383018120805460ff191660ff95909516949094179093556001600160401b0385168352429183019190915287917ffa46b91b2e347d666fb51dfef17fa124689d97f5ec05aa0932ff027f30545428910160405180910390a25b50505b600681600101604051610cbd9190612ed1565b9081526040519081900360200190205460ff16949350505050565b610ce06111d5565b60003411610d005760405162461bcd60e51b815260040161045e90612c31565b610d12610d0c3061122e565b34611679565b6040805134815242602082015233917f92023dd282de3eea749a3a27a58271d70f04c1f7905fce2e1996ec9bdfccf33b910160405180910390a261066560018055565b60038181548110610d6557600080fd5b60009182526020909120600890910201805460018201805491935090610d8a90612d1a565b80601f0160208091040260200160405190810160405280929190818152602001828054610db690612d1a565b8015610e035780601f10610dd857610100808354040283529160200191610e03565b820191906000526020600020905b815481529060010190602001808311610de657829003601f168201915b505050600284015460038501805494956001600160401b03909216949193509150610e2d90612d1a565b80601f0160208091040260200160405190810160405280929190818152602001828054610e5990612d1a565b8015610ea65780601f10610e7b57610100808354040283529160200191610ea6565b820191906000526020600020905b815481529060010190602001808311610e8957829003601f168201915b505050506004830154600584015460068501546007909501549394919390925060ff1688565b610f1f604051806101000160405280600081526020016060815260200160006001600160401b03168152602001606081526020016000815260200160008152602001600081526020016000151581525090565b60035460008381526002602052604090205410610f4e5760405162461bcd60e51b815260040161045e90612e8f565b6000828152600260205260409020546003805482908110610f7157610f71612c7c565b90600052602060002090600802016040518061010001604052908160008201548152602001600182018054610fa590612d1a565b80601f0160208091040260200160405190810160405280929190818152602001828054610fd190612d1a565b801561101e5780601f10610ff35761010080835404028352916020019161101e565b820191906000526020600020905b81548152906001019060200180831161100157829003601f168201915b505050918352505060028201546001600160401b0316602082015260038201805460409092019161104e90612d1a565b80601f016020809104026020016040519081016040528092919081815260200182805461107a90612d1a565b80156110c75780601f1061109c576101008083540402835291602001916110c7565b820191906000526020600020905b8154815290600101906020018083116110aa57829003601f168201915b505050918352505060048201546020820152600582015460408201526006820154606082015260079091015460ff1615156080909101529392505050565b61110d61117b565b6001600160a01b0381166111725760405162461bcd60e51b815260206004820152602660248201527f4f776e61626c653a206e6577206f776e657220697320746865207a65726f206160448201526564647265737360d01b606482015260840161045e565b6105a0816113c9565b6000546001600160a01b031633146106655760405162461bcd60e51b815260206004820181905260248201527f4f776e61626c653a2063616c6c6572206973206e6f7420746865206f776e6572604482015260640161045e565b6002600154036112275760405162461bcd60e51b815260206004820152601f60248201527f5265656e7472616e637947756172643a207265656e7472616e742063616c6c00604482015260640161045e565b6002600155565b60408051602080820183526060918290528251908101835261020560f11b8184015292901b6bffffffffffffffffffffffff191660428301528051603681840301815260568301909152815290565b6060816000036112a45750506040805180820190915260018152600360fc1b602082015290565b8160005b81156112ce57806112b881612ce5565b91506112c79050600a83612f5d565b91506112a8565b6000816001600160401b038111156112e8576112e86127c2565b6040519080825280601f01601f191660200182016040528015611312576020820181803683370190505b5090505b841561137d57611327600183612cd2565b9150611334600a86612f71565b61133f906030612cbf565b60f81b81838151811061135457611354612c7c565b60200101906001600160f81b031916908160001a905350611376600a86612f5d565b9450611316565b949350505050565b60408051808201909152606081526000602082015260006113a5836116c7565b905060006113be60056387ed0a64605185600080611761565b905061137d8161183b565b600080546001600160a01b038381166001600160a01b0319831681178455604051919092169283917f8be0079c531659141344cd1fd0a4f28419497f9722a3daafe3b4186f6b6457e09190a35050565b600060088251106114335761142d82612f85565b60c01c90505b60035415611628576000600360008154811061145157611451612c7c565b9060005260206000209060080201905060008060405160200161147691815260200190565b60408051808303601f19018152828252805160209182012060028601805467ffffffffffffffff19166001600160401b03891617905583830190925260118352703334b632b1b7b4b716b83937bb34b232b960791b90830152915060038301906114e09082612da2565b5060008181526007602052604090819020805467ffffffffffffffff19166001600160401b0386161790555160059061151d906001850190612ed1565b908152604080519182900360209081018320805460018101825560009182529082902084840190935260118452703334b632b1b7b4b716b83937bb34b232b960791b9184019190915201906115729082612da2565b5060026006836001016040516115889190612ed1565b908152602001604051809103902060006101000a81548160ff021916908360ff160217905550807f0bcffd5969d6ab10615a68b012b496704845b1d152ac5d0c6a9be6b33742a903844260405161161d9291906001600160401b03929092168252606060208301819052601190830152703334b632b1b7b4b716b83937bb34b232b960791b6080830152604082015260a00190565b60405180910390a250505b5050565b60408051808201909152600080825260208201526000611654836001600160401b031661189f565b9050600061166e6005639904f2ff60518560006001611761565b905061137d816118d7565b60006116848361193b565b9050600061169d6005633105f1a6605185876000611761565b905080516000146116c157604051630e74990760e01b815260040160405180910390fd5b50505050565b60606000806116d98460200151611969565b90506116e56002611a88565b6116ef9083612cbf565b8451519092506116fe90611ad6565b6117089083612cbf565b915061171381611ad6565b61171d9083612cbf565b9150600061172a83611af4565b9050611737816002611b15565b845151611745908290611b21565b61174f8183611b21565b61175881611b3f565b95945050505050565b60606117746005607f60991b0184611b8a565b6000806005607f60991b0188868661178d576000611790565b60015b8a8a8e6040516020016117a896959493929190612fbc565b60408051601f19818403018152908290526117c291612cfe565b600060405180830381855af49150503d80600081146117fd576040519150601f19603f3d011682016040523d82523d6000602084013e611802565b606091505b50915091508161182557604051638a7db5bf60e01b815260040160405180910390fd5b61182e81611bd8565b9998505050505050505050565b604080518082019091526060808252600060208301819052835115611879576118648482611cbb565b81519193509150156118795761137d82611e70565b505060408051600081830181815260608301909352918152602081019190915292915050565b606060006118b5836001600160401b0316611a88565b905060006118c282611af4565b90506118ce8185611fcc565b61137d81611b3f565b60408051808201909152600080825260208201526000806118f88482611fd8565b925090506002811461190c5761190c61300b565b6119168483612054565b60079190910b8452915061192a8483612054565b5060070b6020840152509092915050565b6060600061194c8360000151611ad6565b9050600061195982611af4565b84519091506118ce908290611b21565b80515160609060009061197d906001612cbf565b6001600160401b03811115611994576119946127c2565b6040519080825280601f01601f1916602001820160405280156119be576020820181803683370190505b5090508260200151151560011515146119d85760006119de565b600160f81b5b816000815181106119f1576119f1612c7c565b60200101906001600160f81b031916908160001a905350600160005b845151811015611a7f578451805182908110611a2b57611a2b612c7c565b602001015160f81c60f81b838381518110611a4857611a48612c7c565b60200101906001600160f81b031916908160001a90535081611a6981612ce5565b9250508080611a7790612ce5565b915050611a0d565b50909392505050565b600060178211611a9a57506001919050565b60ff8211611aaa57506002919050565b61ffff8211611abb57506003919050565b63ffffffff8211611ace57506005919050565b506009919050565b60008151611ae48351611a88565b611aee9190612cbf565b92915050565b611afc612774565b8051611b08908361206e565b5060006020820152919050565b611628826004836120e5565b611b2e82600283516120ec565b8151611b3a9082612205565b505050565b60608160200151600014611b845760405162461bcd60e51b815260206004820152600c60248201526b24b73b30b634b21021a127a960a11b604482015260640161045e565b50515190565b4781811015611bb657604051634787a10360e11b8152600481018290526024810183905260440161045e565b823f1515806116c15760405163064d954b60e41b815260040160405180910390fd5b6060600080600084806020019051810190611bf39190613021565b919450925090506001600160401b038216611c2d57805115611c2857604051630e74990760e01b815260040160405180910390fd5b611c99565b6001600160401b03821660511480611c4e57506001600160401b0382166071145b15611c75578051600003611c2857604051630e74990760e01b815260040160405180910390fd5b60405163f1f6bced60e01b81526001600160401b038316600482015260240161045e565b821561137d5760405163d4bb667160e01b81526004810184905260240161045e565b60606000806000611ccc868661222d565b96509092506001600160401b0316905060ff821660061480611cf1575060ff82166002145b611d545760405162461bcd60e51b815260206004820152602e60248201527f696e76616c6964206d616a20286578706563746564204d616a546167206f722060448201526d4d616a42797465537472696e672960901b606482015260840161045e565b60051960ff831601611d8d57611d6a868661222d565b96509092506001600160401b0316905060ff8216600214611d8d57611d8d61300b565b6000611d998287612cbf565b90506000826001600160401b03811115611db557611db56127c2565b6040519080825280601f01601f191660200182016040528015611ddf576020820181803683370190505b5090506000875b83811015611e5457898181518110611e0057611e00612c7c565b602001015160f81c60f81b838381518110611e1d57611e1d612c7c565b60200101906001600160f81b031916908160001a90535081611e3e81612ce5565b9250508080611e4c90612ce5565b915050611de6565b5081611e60858a612cbf565b9650965050505050509250929050565b6040805180820190915260608152600060208201528151600003611eb9575050604080516080810182526001918101918252600060608201819052918152602081019190915290565b600060018351611ec99190612cd2565b6001600160401b03811115611ee057611ee06127c2565b6040519080825280601f01601f191660200182016040528015611f0a576020820181803683370190505b509050600083600081518110611f2257611f22612c7c565b01602001516001600160f81b031916600160f81b03611f3f575060015b60015b8451811015611fb157848181518110611f5d57611f5d612c7c565b01602001516001600160f81b03191683611f78600184612cd2565b81518110611f8857611f88612c7c565b60200101906001600160f81b031916908160001a90535080611fa981612ce5565b915050611f42565b50604080518082019091529182521515602082015292915050565b611628826000836120ec565b600080600080611fe8868661222d565b96509092506001600160401b0316905060ff821660041461204b5760405162461bcd60e51b815260206004820152601f60248201527f696e76616c6964206d616a20286578706563746564204d616a41727261792900604482015260640161045e565b95939450505050565b600080806120628585612407565b90969095509350505050565b60408051808201909152606081526000602082015261208e602083612f71565b156120b65761209e602083612f71565b6120a9906020612cd2565b6120b39083612cbf565b91505b6020808401839052604051808552600081529081840101818110156120da57600080fd5b604052509192915050565b611b3a8383835b6017816001600160401b0316116121125782516116c19060e0600585901b1683176124a4565b60ff816001600160401b03161161215257825161213a906018611fe0600586901b16176124a4565b5082516116c1906001600160401b038316600161250d565b61ffff816001600160401b03161161219357825161217b906019611fe0600586901b16176124a4565b5082516116c1906001600160401b038316600261250d565b63ffffffff816001600160401b0316116121d65782516121be90601a611fe0600586901b16176124a4565b5082516116c1906001600160401b038316600461250d565b82516121ed90601b611fe0600586901b16176124a4565b5082516116c1906001600160401b038316600861250d565b60408051808201909152606081526000602082015261222683838451612592565b9392505050565b60008060008061223d8686612663565b905061224a600186612cbf565b94506007600582901c16601f8216601c81106122b65760405162461bcd60e51b815260206004820152602560248201527f63616e6e6f742068616e646c6520686561646572732077697468206578747261604482015264203e20323760d81b606482015260840161045e565b60188160ff1610156122d45790945060ff1692508491506124009050565b8060ff166018036123505760006122eb8989612663565b90506122f8600189612cbf565b975060188160ff16101561233d5760405162461bcd60e51b815260206004820152600c60248201526b34b73b30b634b21031b137b960a11b604482015260640161045e565b9195505060ff1692508491506124009050565b8060ff1660190361238a57600061236789896126b2565b9050612374600289612cbf565b97509195505061ffff1692508491506124009050565b8060ff16601a036123c65760006123a189896126eb565b90506123ae600489612cbf565b97509195505063ffffffff1692508491506124009050565b8060ff16601b146123d9576123d961300b565b60006123e58989612724565b90506123f2600889612cbf565b975091955090935085925050505b9250925092565b600080600080612417868661222d565b96509092506001600160401b0316905060ff82166001148061243a575060ff8216155b61204b5760405162461bcd60e51b815260206004820152603560248201527f696e76616c6964206d616a20286578706563746564204d616a5369676e6564496044820152746e74206f72204d616a556e7369676e6564496e742960581b606482015260840161045e565b60408051808201909152606081526000602082015282515160006124c9826001612cbf565b9050846020015182106124ea576124ea856124e5836002612ca8565b61275d565b8451602083820101858153508051821115612503578181525b5093949350505050565b60408051808201909152606081526000602082015283515160006125318285612cbf565b9050856020015181111561254e5761254e866124e5836002612ca8565b6000600161255e8661010061319a565b6125689190612cd2565b90508651828101878319825116178152508051831115612586578281525b50959695505050505050565b60408051808201909152606081526000602082015282518211156125b557600080fd5b83515160006125c48483612cbf565b905085602001518111156125e1576125e1866124e5836002612ca8565b8551805183820160200191600091808511156125fb578482525b505050602086015b6020861061263b578051825261261a602083612cbf565b9150612627602082612cbf565b9050612634602087612cd2565b9550612603565b51815160001960208890036101000a0190811690199190911617905250849150509392505050565b6000612670826001612cbf565b835110156126905760405162461bcd60e51b815260040161045e906131a6565b8282815181106126a2576126a2612c7c565b016020015160f81c905092915050565b60006126bf826002612cbf565b835110156126df5760405162461bcd60e51b815260040161045e906131a6565b50016020015160f01c90565b60006126f8826004612cbf565b835110156127185760405162461bcd60e51b815260040161045e906131a6565b50016020015160e01c90565b6000612731826008612cbf565b835110156127515760405162461bcd60e51b815260040161045e906131a6565b50016020015160c01c90565b8151612769838361206e565b506116c18382612205565b604051806040016040528061279c604051806040016040528060608152602001600081525090565b8152602001600081525090565b6000602082840312156127bb57600080fd5b5035919050565b634e487b7160e01b600052604160045260246000fd5b604051601f8201601f191681016001600160401b0381118282101715612800576128006127c2565b604052919050565b60006001600160401b03821115612821576128216127c2565b50601f01601f191660200190565b600061284261283d84612808565b6127d8565b905082815283838301111561285657600080fd5b828260208301376000602084830101529392505050565b600082601f83011261287e57600080fd5b6122268383356020850161282f565b600080604083850312156128a057600080fd5b82356001600160401b038111156128b657600080fd5b6128c28582860161286d565b95602094909401359450505050565b6000602082840312156128e357600080fd5b81356001600160401b038111156128f957600080fd5b61137d8482850161286d565b6020808252825182820181905260009190848201906040850190845b8181101561293d57835183529284019291840191600101612921565b50909695505050505050565b60005b8381101561296457818101518382015260200161294c565b50506000910152565b60008151808452612985816020860160208601612949565b601f01601f19169290920160200192915050565b602081526000612226602083018461296d565b6001600160401b03811681146105a057600080fd5b6000806000606084860312156129d657600080fd5b83356129e1816129ac565b925060208401356129f1816129ac565b915060408401356001600160401b03811115612a0c57600080fd5b8401601f81018613612a1d57600080fd5b612a2c8682356020840161282f565b9150509250925092565b63ffffffff841681526001600160401b0383166020820152606060408201526000611758606083018461296d565b8035600781900b8114612a7657600080fd5b919050565b60008060008060008060c08789031215612a9457600080fd5b86356001600160401b03811115612aaa57600080fd5b612ab689828a0161286d565b9650506020870135612ac7816129ac565b945060408701358015158114612adc57600080fd5b9350612aea60608801612a64565b9250612af860808801612a64565b915060a087013590509295509295509295565b60006101008a8352806020840152612b258184018b61296d565b90506001600160401b03891660408401528281036060840152612b48818961296d565b9150508560808301528460a08301528360c083015282151560e08301529998505050505050505050565b602081528151602082015260006020830151610100806040850152612b9b61012085018361296d565b91506001600160401b0360408601511660608501526060850151601f19858403016080860152612bcb838261296d565b925050608085015160a085015260a085015160c085015260c085015160e085015260e0850151612bfe8286018215159052565b5090949350505050565b600060208284031215612c1a57600080fd5b81356001600160a01b038116811461222657600080fd5b6020808252602b908201527f46696c65636f696e4465616c436c69656e743a20416d6f756e74206d7573742060408201526a626520706f73697469766560a81b606082015260800190565b634e487b7160e01b600052603260045260246000fd5b634e487b7160e01b600052601160045260246000fd5b8082028115828204841417611aee57611aee612c92565b80820180821115611aee57611aee612c92565b81810381811115611aee57611aee612c92565b600060018201612cf757612cf7612c92565b5060010190565b60008251612d10818460208701612949565b9190910192915050565b600181811c90821680612d2e57607f821691505b602082108103612d4e57634e487b7160e01b600052602260045260246000fd5b50919050565b601f821115611b3a57600081815260208120601f850160051c81016020861015612d7b5750805b601f850160051c820191505b81811015612d9a57828155600101612d87565b505050505050565b81516001600160401b03811115612dbb57612dbb6127c2565b612dcf81612dc98454612d1a565b84612d54565b602080601f831160018114612e045760008415612dec5750858301515b600019600386901b1c1916600185901b178555612d9a565b600085815260208120601f198616915b82811015612e3357888601518255948401946001909101908401612e14565b5085821015612e515787850151600019600388901b60f8161c191681555b5050505050600190811b01905550565b606081526000612e74606083018661296d565b6001600160401b039490941660208301525060400152919050565b60208082526022908201527f46696c65636f696e4465616c436c69656e743a204465616c206e6f7420666f756040820152611b9960f21b606082015260800190565b6000808354612edf81612d1a565b60018281168015612ef75760018114612f0c57612f3b565b60ff1984168752821515830287019450612f3b565b8760005260208060002060005b85811015612f325781548a820152908401908201612f19565b50505082870194505b50929695505050505050565b634e487b7160e01b600052601260045260246000fd5b600082612f6c57612f6c612f47565b500490565b600082612f8057612f80612f47565b500690565b805160208201516001600160c01b03198082169291906008831015612fb45780818460080360031b1b83161693505b505050919050565b60006001600160401b0380891683528760208401528087166040840152808616606084015260c06080840152612ff560c084018661296d565b915080841660a084015250979650505050505050565b634e487b7160e01b600052600160045260246000fd5b60008060006060848603121561303657600080fd5b835192506020840151613048816129ac565b60408501519092506001600160401b0381111561306457600080fd5b8401601f8101861361307557600080fd5b805161308361283d82612808565b81815287602083850101111561309857600080fd5b6130a9826020830160208601612949565b8093505050509250925092565b600181815b808511156130f15781600019048211156130d7576130d7612c92565b808516156130e457918102915b93841c93908002906130bb565b509250929050565b60008261310857506001611aee565b8161311557506000611aee565b816001811461312b576002811461313557613151565b6001915050611aee565b60ff84111561314657613146612c92565b50506001821b611aee565b5060208310610133831016604e8410600b8410161715613174575081810a611aee565b61317e83836130b6565b806000190482111561319257613192612c92565b029392505050565b600061222683836130f9565b602080825260149082015273736c6963696e67206f7574206f662072616e676560601b60408201526060019056fea2646970667358221220cec404534c474e7d983576377c6b5cffb36695b377530c5a00940e3a03e196db64736f6c63430008110033",
  "linkReferences": {},
  "deployedLinkReferences": {}
}