{
  "_format": "hh-sol-artifact-1",
  "contractName": "DataDAO",
  "sourceName": "contracts/DataDAO.sol",
  "abi": [
    {
      "inputs": [
        {
          "internalType": "uint256",
          "name": "_minProposalPower",
          "type": "uint256"
        },
        {
          "internalType": "uint256",
          "name": "_quorumPercentage",
          "type": "uint256"
        }
      ],
      "stateMutability": "nonpayable",
      "type": "constructor"
    },
    {
      "anonymous": false,
      "inputs": [
        {
          "indexed": true,
          "internalType": "uint256",
          "name": "proposalId",
          "type": "uint256"
        },
        {
          "indexed": true,
          "internalType": "address",
          "name": "canceler",
          "type": "address"
        },
        {
          "indexed": false,
          "internalType": "uint256",
          "name": "timestamp",
          "type": "uint256"
        }
      ],
      "name": "ProposalCanceled",
      "type": "event"
    },
    {
      "anonymous": false,
      "inputs": [
        {
          "indexed": true,
          "internalType": "uint256",
          "name": "proposalId",
          "type": "uint256"
        },
        {
          "indexed": true,
          "internalType": "address",
          "name": "proposer",
          "type": "address"
        },
        {
          "indexed": false,
          "internalType": "string",
          "name": "title",
          "type": "string"
        },
        {
          "indexed": false,
          "internalType": "uint256",
          "name": "creationTime",
          "type": "uint256"
        },
        {
          "indexed": false,
          "internalType": "uint256",
          "name": "votingEndTime",
          "type": "uint256"
        }
      ],
      "name": "ProposalCreated",
      "type": "event"
    },
    {
      "anonymous": false,
      "inputs": [
        {
          "indexed": true,
          "internalType": "uint256",
          "name": "proposalId",
          "type": "uint256"
        },
        {
          "indexed": true,
          "internalType": "address",
          "name": "executor",
          "type": "address"
        },
        {
          "indexed": false,
          "internalType": "uint256",
          "name": "timestamp",
          "type": "uint256"
        }
      ],
      "name": "ProposalExecuted",
      "type": "event"
    },
    {
      "anonymous": false,
      "inputs": [
        {
          "indexed": true,
          "internalType": "bytes32",
          "name": "role",
          "type": "bytes32"
        },
        {
          "indexed": true,
          "internalType": "bytes32",
          "name": "previousAdminRole",
          "type": "bytes32"
        },
        {
          "indexed": true,
          "internalType": "bytes32",
          "name": "newAdminRole",
          "type": "bytes32"
        }
      ],
      "name": "RoleAdminChanged",
      "type": "event"
    },
    {
      "anonymous": false,
      "inputs": [
        {
          "indexed": true,
          "internalType": "bytes32",
          "name": "role",
          "type": "bytes32"
        },
        {
          "indexed": true,
          "internalType": "address",
          "name": "account",
          "type": "address"
        },
        {
          "indexed": true,
          "internalType": "address",
          "name": "sender",
          "type": "address"
        }
      ],
      "name": "RoleGranted",
      "type": "event"
    },
    {
      "anonymous": false,
      "inputs": [
        {
          "indexed": true,
          "internalType": "bytes32",
          "name": "role",
          "type": "bytes32"
        },
        {
          "indexed": true,
          "internalType": "address",
          "name": "account",
          "type": "address"
        },
        {
          "indexed": true,
          "internalType": "address",
          "name": "sender",
          "type": "address"
        }
      ],
      "name": "RoleRevoked",
      "type": "event"
    },
    {
      "anonymous": false,
      "inputs": [
        {
          "indexed": true,
          "internalType": "uint256",
          "name": "proposalId",
          "type": "uint256"
        },
        {
          "indexed": true,
          "internalType": "address",
          "name": "voter",
          "type": "address"
        },
        {
          "indexed": false,
          "internalType": "bool",
          "name": "support",
          "type": "bool"
        },
        {
          "indexed": false,
          "internalType": "uint256",
          "name": "timestamp",
          "type": "uint256"
        }
      ],
      "name": "VoteCast",
      "type": "event"
    },
    {
      "inputs": [],
      "name": "DAO_ADMIN_ROLE",
      "outputs": [
        {
          "internalType": "bytes32",
          "name": "",
          "type": "bytes32"
        }
      ],
      "stateMutability": "view",
      "type": "function"
    },
    {
      "inputs": [],
      "name": "DEFAULT_ADMIN_ROLE",
      "outputs": [
        {
          "internalType": "bytes32",
          "name": "",
          "type": "bytes32"
        }
      ],
      "stateMutability": "view",
      "type": "function"
    },
    {
      "inputs": [
        {
          "internalType": "address",
          "name": "account",
          "type": "address"
        },
        {
          "internalType": "uint256",
          "name": "amount",
          "type": "uint256"
        }
      ],
      "name": "assignVotingPower",
      "outputs": [],
      "stateMutability": "nonpayable",
      "type": "function"
    },
    {
      "inputs": [
        {
          "internalType": "uint256",
          "name": "proposalId",
          "type": "uint256"
        }
      ],
      "name": "cancelProposal",
      "outputs": [],
      "stateMutability": "nonpayable",
      "type": "function"
    },
    {
      "inputs": [
        {
          "internalType": "uint256",
          "name": "proposalId",
          "type": "uint256"
        },
        {
          "internalType": "bool",
          "name": "support",
          "type": "bool"
        }
      ],
      "name": "castVote",
      "outputs": [],
      "stateMutability": "nonpayable",
      "type": "function"
    },
    {
      "inputs": [
        {
          "internalType": "string",
          "name": "title",
          "type": "string"
        },
        {
          "internalType": "string",
          "name": "description",
          "type": "string"
        },
        {
          "internalType": "bytes",
          "name": "data",
          "type": "bytes"
        },
        {
          "internalType": "uint256",
          "name": "votingPeriod",
          "type": "uint256"
        }
      ],
      "name": "createProposal",
      "outputs": [
        {
          "internalType": "uint256",
          "name": "",
          "type": "uint256"
        }
      ],
      "stateMutability": "nonpayable",
      "type": "function"
    },
    {
      "inputs": [
        {
          "internalType": "uint256",
          "name": "proposalId",
          "type": "uint256"
        }
      ],
      "name": "executeProposal",
      "outputs": [],
      "stateMutability": "nonpayable",
      "type": "function"
    },
    {
      "inputs": [],
      "name": "getActiveProposals",
      "outputs": [
        {
          "internalType": "uint256[]",
          "name": "",
          "type": "uint256[]"
        }
      ],
      "stateMutability": "view",
      "type": "function"
    },
    {
      "inputs": [
        {
          "internalType": "uint256",
          "name": "proposalId",
          "type": "uint256"
        }
      ],
      "name": "getProposal",
      "outputs": [
        {
          "components": [
            {
              "internalType": "uint256",
              "name": "id",
              "type": "uint256"
            },
            {
              "internalType": "address",
              "name": "proposer",
              "type": "address"
            },
            {
              "internalType": "string",
              "name": "title",
              "type": "string"
            },
            {
              "internalType": "string",
              "name": "description",
              "type": "string"
            },
            {
              "internalType": "bytes",
              "name": "data",
              "type": "bytes"
            },
            {
              "internalType": "uint256",
              "name": "creationTime",
              "type": "uint256"
            },
            {
              "internalType": "uint256",
              "name": "votingEndTime",
              "type": "uint256"
            },
            {
              "internalType": "uint256",
              "name": "forVotes",
              "type": "uint256"
            },
            {
              "internalType": "uint256",
              "name": "againstVotes",
              "type": "uint256"
            },
            {
              "internalType": "bool",
              "name": "executed",
              "type": "bool"
            },
            {
              "internalType": "bool",
              "name": "canceled",
              "type": "bool"
            }
          ],
          "internalType": "struct DataTypes.Proposal",
          "name": "",
          "type": "tuple"
        }
      ],
      "stateMutability": "view",
      "type": "function"
    },
    {
      "inputs": [
        {
          "internalType": "uint256",
          "name": "proposalId",
          "type": "uint256"
        }
      ],
      "name": "getProposalStatus",
      "outputs": [
        {
          "internalType": "uint8",
          "name": "",
          "type": "uint8"
        }
      ],
      "stateMutability": "view",
      "type": "function"
    },
    {
      "inputs": [
        {
          "internalType": "bytes32",
          "name": "role",
          "type": "bytes32"
        }
      ],
      "name": "getRoleAdmin",
      "outputs": [
        {
          "internalType": "bytes32",
          "name": "",
          "type": "bytes32"
        }
      ],
      "stateMutability": "view",
      "type": "function"
    },
    {
      "inputs": [
        {
          "internalType": "uint256",
          "name": "proposalId",
          "type": "uint256"
        }
      ],
      "name": "getVotingResults",
      "outputs": [
        {
          "internalType": "uint256",
          "name": "",
          "type": "uint256"
        },
        {
          "internalType": "uint256",
          "name": "",
          "type": "uint256"
        },
        {
          "internalType": "uint256",
          "name": "",
          "type": "uint256"
        }
      ],
      "stateMutability": "view",
      "type": "function"
    },
    {
      "inputs": [
        {
          "internalType": "bytes32",
          "name": "role",
          "type": "bytes32"
        },
        {
          "internalType": "address",
          "name": "account",
          "type": "address"
        }
      ],
      "name": "grantRole",
      "outputs": [],
      "stateMutability": "nonpayable",
      "type": "function"
    },
    {
      "inputs": [
        {
          "internalType": "bytes32",
          "name": "role",
          "type": "bytes32"
        },
        {
          "internalType": "address",
          "name": "account",
          "type": "address"
        }
      ],
      "name": "hasRole",
      "outputs": [
        {
          "internalType": "bool",
          "name": "",
          "type": "bool"
        }
      ],
      "stateMutability": "view",
      "type": "function"
    },
    {
      "inputs": [
        {
          "internalType": "uint256",
          "name": "proposalId",
          "type": "uint256"
        },
        {
          "internalType": "address",
          "name": "voter",
          "type": "address"
        }
      ],
      "name": "hasVoted",
      "outputs": [
        {
          "internalType": "bool",
          "name": "",
          "type": "bool"
        }
      ],
      "stateMutability": "view",
      "type": "function"
    },
    {
      "inputs": [],
      "name": "minProposalPower",
      "outputs": [
        {
          "internalType": "uint256",
          "name": "",
          "type": "uint256"
        }
      ],
      "stateMutability": "view",
      "type": "function"
    },
    {
      "inputs": [],
      "name": "quorumPercentage",
      "outputs": [
        {
          "internalType": "uint256",
          "name": "",
          "type": "uint256"
        }
      ],
      "stateMutability": "view",
      "type": "function"
    },
    {
      "inputs": [
        {
          "internalType": "bytes32",
          "name": "role",
          "type": "bytes32"
        },
        {
          "internalType": "address",
          "name": "account",
          "type": "address"
        }
      ],
      "name": "renounceRole",
      "outputs": [],
      "stateMutability": "nonpayable",
      "type": "function"
    },
    {
      "inputs": [
        {
          "internalType": "bytes32",
          "name": "role",
          "type": "bytes32"
        },
        {
          "internalType": "address",
          "name": "account",
          "type": "address"
        }
      ],
      "name": "revokeRole",
      "outputs": [],
      "stateMutability": "nonpayable",
      "type": "function"
    },
    {
      "inputs": [
        {
          "internalType": "uint256",
          "name": "_minProposalPower",
          "type": "uint256"
        }
      ],
      "name": "setMinProposalPower",
      "outputs": [],
      "stateMutability": "nonpayable",
      "type": "function"
    },
    {
      "inputs": [
        {
          "internalType": "uint256",
          "name": "_quorumPercentage",
          "type": "uint256"
        }
      ],
      "name": "setQuorumPercentage",
      "outputs": [],
      "stateMutability": "nonpayable",
      "type": "function"
    },
    {
      "inputs": [
        {
          "internalType": "bytes4",
          "name": "interfaceId",
          "type": "bytes4"
        }
      ],
      "name": "supportsInterface",
      "outputs": [
        {
          "internalType": "bool",
          "name": "",
          "type": "bool"
        }
      ],
      "stateMutability": "view",
      "type": "function"
    }
  ],
  "bytecode": "0x60806040523480156200001157600080fd5b506040516200250a3803806200250a833981016040819052620000349162000148565b600180556200004560003362000098565b620000717f9729b62c1a280a968a683045fd5bbd60b97be4a6b7b0a5b624c9bbc54d6f3b593362000098565b6007919091556008553360009081526005602052604090206064908190556006556200016d565b620000a48282620000a8565b5050565b6000828152602081815260408083206001600160a01b038516845290915290205460ff16620000a4576000828152602081815260408083206001600160a01b03851684529091529020805460ff19166001179055620001043390565b6001600160a01b0316816001600160a01b0316837f2f8788117e7eff1d82e926ec794901d17c78024a50270940304540a733656f0d60405160405180910390a45050565b600080604083850312156200015c57600080fd5b505080516020909101519092909150565b61238d806200017d6000396000f3fe608060405234801561001057600080fd5b50600436106101425760003560e01c80635584c4f9116100b8578063cd89b2e31161007c578063cd89b2e3146102de578063d14dd2f21461030c578063d1b6762714610321578063d4b8756714610334578063d547741f1461033d578063e0a8f6f51461035057600080fd5b80635584c4f91461027b57806391d1485414610290578063a217fddf146102a3578063c3a74f12146102ab578063c7f758a8146102be57600080fd5b806332d084bb1161010a57806332d084bb146101db57806332f6a1dc146101ee57806336568abe14610201578063401853b71461021457806343859632146102395780634fa76ec91461027257600080fd5b806301ffc9a7146101475780630d61b5191461016f57806315373e3d14610184578063248a9ca3146101975780632f2ff15d146101c8575b600080fd5b61015a610155366004611c66565b610363565b60405190151581526020015b60405180910390f35b61018261017d366004611c90565b61039a565b005b610182610192366004611ca9565b6105ec565b6101ba6101a5366004611c90565b60009081526020819052604090206001015490565b604051908152602001610166565b6101826101d6366004611cfa565b6108b7565b6101ba6101e9366004611dd2565b6108e1565b6101826101fc366004611c90565b610b6a565b61018261020f366004611cfa565b610be6565b610227610222366004611c90565b610c60565b60405160ff9091168152602001610166565b61015a610247366004611cfa565b60009182526004602090815260408084206001600160a01b0393909316845291905290205460ff1690565b6101ba60085481565b610283610f68565b6040516101669190611e76565b61015a61029e366004611cfa565b611133565b6101ba600081565b6101826102b9366004611eba565b61115c565b6102d16102cc366004611c90565b61121b565b6040516101669190611f34565b6102f16102ec366004611c90565b6114c4565b60408051938452602084019290925290820152606001610166565b6101ba60008051602061233883398151915281565b61018261032f366004611c90565b61172c565b6101ba60075481565b61018261034b366004611cfa565b61174a565b61018261035e366004611c90565b61176f565b60006001600160e01b03198216637965db0b60e01b148061039457506301ffc9a760e01b6001600160e01b03198316145b92915050565b6103a261190c565b600081815260036020526040902060018101546001600160a01b03166103e35760405162461bcd60e51b81526004016103da90612010565b60405180910390fd5b80600601544210156104375760405162461bcd60e51b815260206004820181905260248201527f4461746144414f3a20566f74696e6720706572696f64206e6f7420656e64656460448201526064016103da565b600981015460ff161561045c5760405162461bcd60e51b81526004016103da90612045565b6009810154610100900460ff16156104b65760405162461bcd60e51b815260206004820152601a60248201527f4461746144414f3a2050726f706f73616c2063616e63656c656400000000000060448201526064016103da565b6000816008015482600701546104cc919061209d565b9050600854600654826127106104e291906120b0565b6104ec91906120c7565b101561053a5760405162461bcd60e51b815260206004820152601b60248201527f4461746144414f3a2051756f72756d206e6f742072656163686564000000000060448201526064016103da565b81600801548260070154116105915760405162461bcd60e51b815260206004820152601e60248201527f4461746144414f3a2050726f706f73616c20646964206e6f742070617373000060448201526064016103da565b60098201805460ff19166001179055604051339084907f3b7c90df35b419337cff0919fe91849006607bb66c4373623f06f9d48c1ebb98906105d69042815260200190565b60405180910390a350506105e960018055565b50565b6105f461190c565b6000828152600360205260409020600101546001600160a01b031661062b5760405162461bcd60e51b81526004016103da90612010565b600082815260036020526040902060060154421061068b5760405162461bcd60e51b815260206004820152601c60248201527f4461746144414f3a20566f74696e6720706572696f6420656e6465640000000060448201526064016103da565b60008281526003602052604090206009015460ff16156106bd5760405162461bcd60e51b81526004016103da90612045565b600082815260036020526040902060090154610100900460ff16156107245760405162461bcd60e51b815260206004820152601a60248201527f4461746144414f3a2050726f706f73616c2063616e63656c656400000000000060448201526064016103da565b600082815260046020908152604080832033845290915290205460ff16156107875760405162461bcd60e51b815260206004820152601660248201527511185d18511053ce88105b1c9958591e481d9bdd195960521b60448201526064016103da565b33600090815260056020526040902054806107e45760405162461bcd60e51b815260206004820152601860248201527f4461746144414f3a204e6f20766f74696e6720706f776572000000000000000060448201526064016103da565b8115610816576000838152600360205260408120600701805483929061080b90849061209d565b9091555061083d9050565b6000838152600360205260408120600801805483929061083790849061209d565b90915550505b600083815260046020908152604080832033808552925291829020805460ff19166001179055905184907fcbdf6214089cba887ecbf35a0b6a734589959c9763342c756bb2a80ca2bc9f6e906108a190869042909115158252602082015260400190565b60405180910390a3506108b360018055565b5050565b6000828152602081905260409020600101546108d281611965565b6108dc838361196f565b505050565b60006108eb61190c565b6007543360009081526005602052604090205410156109575760405162461bcd60e51b815260206004820152602260248201527f4461746144414f3a20496e73756666696369656e7420766f74696e6720706f7760448201526132b960f11b60648201526084016103da565b62015180821015801561096d575062278d008211155b6109b95760405162461bcd60e51b815260206004820152601e60248201527f4461746144414f3a20496e76616c696420766f74696e6720706572696f64000060448201526064016103da565b6109c7600280546001019055565b60006109d260025490565b90506000604051806101600160405280838152602001336001600160a01b031681526020018881526020018781526020018681526020014281526020018542610a1b919061209d565b8152600060208083018290526040808401839052606084018390526080909301829052858252600381529082902083518155908301516001820180546001600160a01b0319166001600160a01b039092169190911790559082015191925082916002820190610a8a9082612171565b5060608201516003820190610a9f9082612171565b5060808201516004820190610ab49082612171565b5060a0820151600582015560c0820151600682015560e08201516007820155610100808301516008830155610120830151600990920180546101409094015161ffff1990941692151561ff001916929092179215150291909117905533827f6c98a8c940418b35614f0cd02412d5c9606faff474cbb6cdd6640ba5d1a9f06b8942610b3f898261209d565b604051610b4e93929190612231565b60405180910390a3509050610b6260018055565b949350505050565b600080516020612338833981519152610b8281611965565b612710821115610be05760405162461bcd60e51b815260206004820152602360248201527f4461746144414f3a2051756f72756d2070657263656e7461676520746f6f20686044820152620d2ced60eb1b60648201526084016103da565b50600855565b6001600160a01b0381163314610c565760405162461bcd60e51b815260206004820152602f60248201527f416363657373436f6e74726f6c3a2063616e206f6e6c792072656e6f756e636560448201526e103937b632b9903337b91039b2b63360891b60648201526084016103da565b6108b382826119f3565b60008181526003602090815260408083208151610160810183528154815260018201546001600160a01b03169381019390935260028101805485949384019190610ca9906120e9565b80601f0160208091040260200160405190810160405280929190818152602001828054610cd5906120e9565b8015610d225780601f10610cf757610100808354040283529160200191610d22565b820191906000526020600020905b815481529060010190602001808311610d0557829003601f168201915b50505050508152602001600382018054610d3b906120e9565b80601f0160208091040260200160405190810160405280929190818152602001828054610d67906120e9565b8015610db45780601f10610d8957610100808354040283529160200191610db4565b820191906000526020600020905b815481529060010190602001808311610d9757829003601f168201915b50505050508152602001600482018054610dcd906120e9565b80601f0160208091040260200160405190810160405280929190818152602001828054610df9906120e9565b8015610e465780601f10610e1b57610100808354040283529160200191610e46565b820191906000526020600020905b815481529060010190602001808311610e2957829003601f168201915b5050509183525050600582015460208083019190915260068301546040830152600783015460608301526008830154608083015260099092015460ff808216151560a084015261010090910416151560c0909101528101519091506001600160a01b0316610eb75750600092915050565b80610140015115610ecb5750600592915050565b80610120015115610edf5750600492915050565b8060c00151421015610ef45750600192915050565b60008161010001518260e00151610f0b919061209d565b9050600060085460065483612710610f2391906120b0565b610f2d91906120c7565b1015905080610f4157506003949350505050565b8261010001518360e001511115610f5d57506002949350505050565b506003949350505050565b6060600060015b6002548111611017576000818152600360205260409020600101546001600160a01b031615801590610fb3575060008181526003602052604090206009015460ff16155b8015610fd65750600081815260036020526040902060090154610100900460ff16155b8015610ff2575060008181526003602052604090206006015442105b15611005578161100181612256565b9250505b8061100f81612256565b915050610f6f565b5060008167ffffffffffffffff81111561103357611033611d26565b60405190808252806020026020018201604052801561105c578160200160208202803683370190505b509050600060015b600254811161112a576000818152600360205260409020600101546001600160a01b0316158015906110a8575060008181526003602052604090206009015460ff16155b80156110cb5750600081815260036020526040902060090154610100900460ff16155b80156110e7575060008181526003602052604090206006015442105b1561111857808383815181106110ff576110ff61226f565b60209081029190910101528161111481612256565b9250505b8061112281612256565b915050611064565b50909392505050565b6000918252602082815260408084206001600160a01b0393909316845291905290205460ff1690565b60008051602061233883398151915261117481611965565b6001600160a01b0383166111ca5760405162461bcd60e51b815260206004820152601860248201527f4461746144414f3a20496e76616c69642061646472657373000000000000000060448201526064016103da565b6001600160a01b03831660009081526005602052604090205460065483916111f191612285565b6111fb919061209d565b600655506001600160a01b03909116600090815260056020526040902055565b6112856040518061016001604052806000815260200160006001600160a01b03168152602001606081526020016060815260200160608152602001600081526020016000815260200160008152602001600081526020016000151581526020016000151581525090565b6000828152600360209081526040918290208251610160810184528154815260018201546001600160a01b03169281019290925260028101805492939192918401916112d0906120e9565b80601f01602080910402602001604051908101604052809291908181526020018280546112fc906120e9565b80156113495780601f1061131e57610100808354040283529160200191611349565b820191906000526020600020905b81548152906001019060200180831161132c57829003601f168201915b50505050508152602001600382018054611362906120e9565b80601f016020809104026020016040519081016040528092919081815260200182805461138e906120e9565b80156113db5780601f106113b0576101008083540402835291602001916113db565b820191906000526020600020905b8154815290600101906020018083116113be57829003601f168201915b505050505081526020016004820180546113f4906120e9565b80601f0160208091040260200160405190810160405280929190818152602001828054611420906120e9565b801561146d5780601f106114425761010080835404028352916020019161146d565b820191906000526020600020905b81548152906001019060200180831161145057829003601f168201915b50505091835250506005820154602082015260068201546040820152600782015460608201526008820154608082015260099091015460ff808216151560a084015261010090910416151560c09091015292915050565b60008181526003602090815260408083208151610160810183528154815260018201546001600160a01b031693810193909352600281018054859485948594919391929084019190611515906120e9565b80601f0160208091040260200160405190810160405280929190818152602001828054611541906120e9565b801561158e5780601f106115635761010080835404028352916020019161158e565b820191906000526020600020905b81548152906001019060200180831161157157829003601f168201915b505050505081526020016003820180546115a7906120e9565b80601f01602080910402602001604051908101604052809291908181526020018280546115d3906120e9565b80156116205780601f106115f557610100808354040283529160200191611620565b820191906000526020600020905b81548152906001019060200180831161160357829003601f168201915b50505050508152602001600482018054611639906120e9565b80601f0160208091040260200160405190810160405280929190818152602001828054611665906120e9565b80156116b25780601f10611687576101008083540402835291602001916116b2565b820191906000526020600020905b81548152906001019060200180831161169557829003601f168201915b50505091835250506005820154602082015260068201546040820152600782015460608201526008820154608082015260099091015460ff808216151560a08401526101009182900416151560c09092019190915260e0820151908201519192509061171e818361209d565b935093509350509193909250565b60008051602061233883398151915261174481611965565b50600755565b60008281526020819052604090206001015461176581611965565b6108dc83836119f3565b61177761190c565b600081815260036020526040902060018101546001600160a01b03166117af5760405162461bcd60e51b81526004016103da90612010565b600981015460ff16156117d45760405162461bcd60e51b81526004016103da90612045565b6009810154610100900460ff16156118395760405162461bcd60e51b815260206004820152602260248201527f4461746144414f3a2050726f706f73616c20616c72656164792063616e63656c604482015261195960f21b60648201526084016103da565b60018101546001600160a01b0316331480611867575061186760008051602061233883398151915233611133565b6118b35760405162461bcd60e51b815260206004820152601760248201527f4461746144414f3a204e6f7420617574686f72697a656400000000000000000060448201526064016103da565b60098101805461ff001916610100179055604051339083907f138b18a07b49643bc6ce0d2ec0e0734e0c7fdf5ef4a81e9b58789b45c16eb583906118fa9042815260200190565b60405180910390a3506105e960018055565b60026001540361195e5760405162461bcd60e51b815260206004820152601f60248201527f5265656e7472616e637947756172643a207265656e7472616e742063616c6c0060448201526064016103da565b6002600155565b6105e98133611a58565b6119798282611133565b6108b3576000828152602081815260408083206001600160a01b03851684529091529020805460ff191660011790556119af3390565b6001600160a01b0316816001600160a01b0316837f2f8788117e7eff1d82e926ec794901d17c78024a50270940304540a733656f0d60405160405180910390a45050565b6119fd8282611133565b156108b3576000828152602081815260408083206001600160a01b0385168085529252808320805460ff1916905551339285917ff6391f5c32d9c69d2a47ea670b442974b53935d1edc7fd64eb21e047a839171b9190a45050565b611a628282611133565b6108b357611a6f81611ab1565b611a7a836020611ac3565b604051602001611a8b929190612298565b60408051601f198184030181529082905262461bcd60e51b82526103da9160040161230d565b60606103946001600160a01b03831660145b60606000611ad28360026120b0565b611add90600261209d565b67ffffffffffffffff811115611af557611af5611d26565b6040519080825280601f01601f191660200182016040528015611b1f576020820181803683370190505b509050600360fc1b81600081518110611b3a57611b3a61226f565b60200101906001600160f81b031916908160001a905350600f60fb1b81600181518110611b6957611b6961226f565b60200101906001600160f81b031916908160001a9053506000611b8d8460026120b0565b611b9890600161209d565b90505b6001811115611c10576f181899199a1a9b1b9c1cb0b131b232b360811b85600f1660108110611bcc57611bcc61226f565b1a60f81b828281518110611be257611be261226f565b60200101906001600160f81b031916908160001a90535060049490941c93611c0981612320565b9050611b9b565b508315611c5f5760405162461bcd60e51b815260206004820181905260248201527f537472696e67733a20686578206c656e67746820696e73756666696369656e7460448201526064016103da565b9392505050565b600060208284031215611c7857600080fd5b81356001600160e01b031981168114611c5f57600080fd5b600060208284031215611ca257600080fd5b5035919050565b60008060408385031215611cbc57600080fd5b8235915060208301358015158114611cd357600080fd5b809150509250929050565b80356001600160a01b0381168114611cf557600080fd5b919050565b60008060408385031215611d0d57600080fd5b82359150611d1d60208401611cde565b90509250929050565b634e487b7160e01b600052604160045260246000fd5b600067ffffffffffffffff80841115611d5757611d57611d26565b604051601f8501601f19908116603f01168101908282118183101715611d7f57611d7f611d26565b81604052809350858152868686011115611d9857600080fd5b858560208301376000602087830101525050509392505050565b600082601f830112611dc357600080fd5b611c5f83833560208501611d3c565b60008060008060808587031215611de857600080fd5b843567ffffffffffffffff80821115611e0057600080fd5b611e0c88838901611db2565b95506020870135915080821115611e2257600080fd5b611e2e88838901611db2565b94506040870135915080821115611e4457600080fd5b508501601f81018713611e5657600080fd5b611e6587823560208401611d3c565b949793965093946060013593505050565b6020808252825182820181905260009190848201906040850190845b81811015611eae57835183529284019291840191600101611e92565b50909695505050505050565b60008060408385031215611ecd57600080fd5b611ed683611cde565b946020939093013593505050565b60005b83811015611eff578181015183820152602001611ee7565b50506000910152565b60008151808452611f20816020860160208601611ee4565b601f01601f19169290920160200192915050565b602081528151602082015260006020830151611f5b60408401826001600160a01b03169052565b506040830151610160806060850152611f78610180850183611f08565b91506060850151601f1980868503016080870152611f968483611f08565b935060808701519150808685030160a087015250611fb48382611f08565b92505060a085015160c085015260c085015160e085015260e0850151610100818187015280870151915050610120818187015280870151915050610140611ffe8187018315159052565b90950151151593019290925250919050565b6020808252818101527f4461746144414f3a2050726f706f73616c20646f6573206e6f74206578697374604082015260600190565b60208082526022908201527f4461746144414f3a2050726f706f73616c20616c726561647920657865637574604082015261195960f21b606082015260800190565b634e487b7160e01b600052601160045260246000fd5b8082018082111561039457610394612087565b808202811582820484141761039457610394612087565b6000826120e457634e487b7160e01b600052601260045260246000fd5b500490565b600181811c908216806120fd57607f821691505b60208210810361211d57634e487b7160e01b600052602260045260246000fd5b50919050565b601f8211156108dc57600081815260208120601f850160051c8101602086101561214a5750805b601f850160051c820191505b8181101561216957828155600101612156565b505050505050565b815167ffffffffffffffff81111561218b5761218b611d26565b61219f8161219984546120e9565b84612123565b602080601f8311600181146121d457600084156121bc5750858301515b600019600386901b1c1916600185901b178555612169565b600085815260208120601f198616915b82811015612203578886015182559484019460019091019084016121e4565b50858210156122215787850151600019600388901b60f8161c191681555b5050505050600190811b01905550565b6060815260006122446060830186611f08565b60208301949094525060400152919050565b60006001820161226857612268612087565b5060010190565b634e487b7160e01b600052603260045260246000fd5b8181038181111561039457610394612087565b7f416363657373436f6e74726f6c3a206163636f756e74200000000000000000008152600083516122d0816017850160208801611ee4565b7001034b99036b4b9b9b4b733903937b6329607d1b6017918401918201528351612301816028840160208801611ee4565b01602801949350505050565b602081526000611c5f6020830184611f08565b60008161232f5761232f612087565b50600019019056fe9729b62c1a280a968a683045fd5bbd60b97be4a6b7b0a5b624c9bbc54d6f3b59a26469706673582212209fb2ac797b6cc18d674c85a0c24831d50eb97a1ccbe8d98425e71a9caa7679ad64736f6c63430008110033",
  "linkReferences": {},
  "deployedLinkReferences": {}
}