{
  "_format": "hh-sol-artifact-1",
  "contractName": "Marketplace",
  "sourceName": "contracts/Marketplace.sol",
  "abi": [
    {
      "inputs": [
        {
          "internalType": "address",
          "name": "_datasetRegistry",
          "type": "address"
        },
        {
          "internalType": "address",
          "name": "_attributionManager",
          "type": "address"
        },
        {
          "internalType": "address",
          "name": "_platformFeeCollector",
          "type": "address"
        }
      ],
      "stateMutability": "nonpayable",
      "type": "constructor"
    },
    {
      "anonymous": false,
      "inputs": [
        {
          "indexed": true,
          "internalType": "uint256",
          "name": "listingId",
          "type": "uint256"
        },
        {
          "indexed": false,
          "internalType": "uint256",
          "name": "timestamp",
          "type": "uint256"
        }
      ],
      "name": "ListingCanceled",
      "type": "event"
    },
    {
      "anonymous": false,
      "inputs": [
        {
          "indexed": true,
          "internalType": "uint256",
          "name": "listingId",
          "type": "uint256"
        },
        {
          "indexed": true,
          "internalType": "uint256",
          "name": "datasetId",
          "type": "uint256"
        },
        {
          "indexed": true,
          "internalType": "address",
          "name": "seller",
          "type": "address"
        },
        {
          "indexed": false,
          "internalType": "uint256",
          "name": "price",
          "type": "uint256"
        },
        {
          "indexed": false,
          "internalType": "string",
          "name": "licenseType",
          "type": "string"
        },
        {
          "indexed": false,
          "internalType": "uint256",
          "name": "timestamp",
          "type": "uint256"
        }
      ],
      "name": "ListingCreated",
      "type": "event"
    },
    {
      "anonymous": false,
      "inputs": [
        {
          "indexed": true,
          "internalType": "uint256",
          "name": "listingId",
          "type": "uint256"
        },
        {
          "indexed": true,
          "internalType": "uint256",
          "name": "datasetId",
          "type": "uint256"
        },
        {
          "indexed": true,
          "internalType": "address",
          "name": "buyer",
          "type": "address"
        },
        {
          "indexed": false,
          "internalType": "uint256",
          "name": "price",
          "type": "uint256"
        },
        {
          "indexed": false,
          "internalType": "uint256",
          "name": "timestamp",
          "type": "uint256"
        }
      ],
      "name": "ListingPurchased",
      "type": "event"
    },
    {
      "anonymous": false,
      "inputs": [
        {
          "indexed": true,
          "internalType": "uint256",
          "name": "listingId",
          "type": "uint256"
        },
        {
          "indexed": false,
          "internalType": "uint256",
          "name": "price",
          "type": "uint256"
        },
        {
          "indexed": false,
          "internalType": "bool",
          "name": "isActive",
          "type": "bool"
        },
        {
          "indexed": false,
          "internalType": "uint256",
          "name": "timestamp",
          "type": "uint256"
        }
      ],
      "name": "ListingUpdated",
      "type": "event"
    },
    {
      "anonymous": false,
      "inputs": [
        {
          "indexed": true,
          "internalType": "address",
          "name": "previousOwner",
          "type": "address"
        },
        {
          "indexed": true,
          "internalType": "address",
          "name": "newOwner",
          "type": "address"
        }
      ],
      "name": "OwnershipTransferred",
      "type": "event"
    },
    {
      "inputs": [],
      "name": "attributionManager",
      "outputs": [
        {
          "internalType": "contract IAttributionManager",
          "name": "",
          "type": "address"
        }
      ],
      "stateMutability": "view",
      "type": "function"
    },
    {
      "inputs": [
        {
          "internalType": "uint256",
          "name": "listingId",
          "type": "uint256"
        }
      ],
      "name": "cancelListing",
      "outputs": [],
      "stateMutability": "nonpayable",
      "type": "function"
    },
    {
      "inputs": [
        {
          "internalType": "uint256",
          "name": "datasetId",
          "type": "uint256"
        },
        {
          "internalType": "uint256",
          "name": "price",
          "type": "uint256"
        },
        {
          "internalType": "string",
          "name": "licenseType",
          "type": "string"
        },
        {
          "internalType": "uint256",
          "name": "duration",
          "type": "uint256"
        }
      ],
      "name": "createListing",
      "outputs": [
        {
          "internalType": "uint256",
          "name": "",
          "type": "uint256"
        }
      ],
      "stateMutability": "nonpayable",
      "type": "function"
    },
    {
      "inputs": [],
      "name": "datasetRegistry",
      "outputs": [
        {
          "internalType": "contract IDatasetRegistry",
          "name": "",
          "type": "address"
        }
      ],
      "stateMutability": "view",
      "type": "function"
    },
    {
      "inputs": [
        {
          "internalType": "uint256",
          "name": "listingId",
          "type": "uint256"
        }
      ],
      "name": "getListing",
      "outputs": [
        {
          "components": [
            {
              "internalType": "uint256",
              "name": "datasetId",
              "type": "uint256"
            },
            {
              "internalType": "address",
              "name": "seller",
              "type": "address"
            },
            {
              "internalType": "uint256",
              "name": "price",
              "type": "uint256"
            },
            {
              "internalType": "string",
              "name": "currency",
              "type": "string"
            },
            {
              "internalType": "string",
              "name": "licenseType",
              "type": "string"
            },
            {
              "internalType": "uint256",
              "name": "duration",
              "type": "uint256"
            },
            {
              "internalType": "uint256",
              "name": "creationTime",
              "type": "uint256"
            },
            {
              "internalType": "bool",
              "name": "isActive",
              "type": "bool"
            }
          ],
          "internalType": "struct DataTypes.Listing",
          "name": "",
          "type": "tuple"
        }
      ],
      "stateMutability": "view",
      "type": "function"
    },
    {
      "inputs": [
        {
          "internalType": "uint256",
          "name": "datasetId",
          "type": "uint256"
        }
      ],
      "name": "getListingsByDataset",
      "outputs": [
        {
          "internalType": "uint256[]",
          "name": "",
          "type": "uint256[]"
        }
      ],
      "stateMutability": "view",
      "type": "function"
    },
    {
      "inputs": [
        {
          "internalType": "address",
          "name": "seller",
          "type": "address"
        }
      ],
      "name": "getListingsBySeller",
      "outputs": [
        {
          "internalType": "uint256[]",
          "name": "",
          "type": "uint256[]"
        }
      ],
      "stateMutability": "view",
      "type": "function"
    },
    {
      "inputs": [
        {
          "internalType": "address",
          "name": "buyer",
          "type": "address"
        }
      ],
      "name": "getPurchasesByBuyer",
      "outputs": [
        {
          "components": [
            {
              "internalType": "uint256",
              "name": "listingId",
              "type": "uint256"
            },
            {
              "internalType": "address",
              "name": "buyer",
              "type": "address"
            },
            {
              "internalType": "uint256",
              "name": "price",
              "type": "uint256"
            },
            {
              "internalType": "uint256",
              "name": "purchaseTime",
              "type": "uint256"
            },
            {
              "internalType": "uint256",
              "name": "expirationTime",
              "type": "uint256"
            }
          ],
          "internalType": "struct DataTypes.Purchase[]",
          "name": "",
          "type": "tuple[]"
        }
      ],
      "stateMutability": "view",
      "type": "function"
    },
    {
      "inputs": [
        {
          "internalType": "address",
          "name": "buyer",
          "type": "address"
        },
        {
          "internalType": "uint256",
          "name": "datasetId",
          "type": "uint256"
        }
      ],
      "name": "hasAccess",
      "outputs": [
        {
          "internalType": "bool",
          "name": "",
          "type": "bool"
        }
      ],
      "stateMutability": "view",
      "type": "function"
    },
    {
      "inputs": [],
      "name": "owner",
      "outputs": [
        {
          "internalType": "address",
          "name": "",
          "type": "address"
        }
      ],
      "stateMutability": "view",
      "type": "function"
    },
    {
      "inputs": [],
      "name": "platformFeeCollector",
      "outputs": [
        {
          "internalType": "address",
          "name": "",
          "type": "address"
        }
      ],
      "stateMutability": "view",
      "type": "function"
    },
    {
      "inputs": [],
      "name": "platformFeePercentage",
      "outputs": [
        {
          "internalType": "uint256",
          "name": "",
          "type": "uint256"
        }
      ],
      "stateMutability": "view",
      "type": "function"
    },
    {
      "inputs": [
        {
          "internalType": "uint256",
          "name": "listingId",
          "type": "uint256"
        }
      ],
      "name": "purchaseListing",
      "outputs": [],
      "stateMutability": "payable",
      "type": "function"
    },
    {
      "inputs": [],
      "name": "renounceOwnership",
      "outputs": [],
      "stateMutability": "nonpayable",
      "type": "function"
    },
    {
      "inputs": [
        {
          "internalType": "address",
          "name": "_platformFeeCollector",
          "type": "address"
        }
      ],
      "name": "setPlatformFeeCollector",
      "outputs": [],
      "stateMutability": "nonpayable",
      "type": "function"
    },
    {
      "inputs": [
        {
          "internalType": "uint256",
          "name": "_feePercentage",
          "type": "uint256"
        }
      ],
      "name": "setPlatformFeePercentage",
      "outputs": [],
      "stateMutability": "nonpayable",
      "type": "function"
    },
    {
      "inputs": [
        {
          "internalType": "address",
          "name": "newOwner",
          "type": "address"
        }
      ],
      "name": "transferOwnership",
      "outputs": [],
      "stateMutability": "nonpayable",
      "type": "function"
    },
    {
      "inputs": [
        {
          "internalType": "uint256",
          "name": "listingId",
          "type": "uint256"
        },
        {
          "internalType": "uint256",
          "name": "price",
          "type": "uint256"
        },
        {
          "internalType": "bool",
          "name": "isActive",
          "type": "bool"
        }
      ],
      "name": "updateListing",
      "outputs": [],
      "stateMutability": "nonpayable",
      "type": "function"
    }
  ],
  "bytecode": "0x608060405260fa600b553480156200001657600080fd5b50604051620021ed380380620021ed833981016040819052620000399162000246565b6200004433620001d9565b600180556001600160a01b038316620000ba5760405162461bcd60e51b815260206004820152602d60248201527f4d61726b6574706c6163653a20496e76616c696420646174617365742072656760448201526c6973747279206164647265737360981b60648201526084015b60405180910390fd5b6001600160a01b0382166200012b5760405162461bcd60e51b815260206004820152603060248201527f4d61726b6574706c6163653a20496e76616c6964206174747269627574696f6e60448201526f206d616e61676572206164647265737360801b6064820152608401620000b1565b6001600160a01b038116620001965760405162461bcd60e51b815260206004820152602a60248201527f4d61726b6574706c6163653a20496e76616c69642066656520636f6c6c6563746044820152696f72206164647265737360b01b6064820152608401620000b1565b600380546001600160a01b039485166001600160a01b0319918216179091556004805493851693821693909317909255600c805491909316911617905562000290565b600080546001600160a01b038381166001600160a01b0319831681178455604051919092169283917f8be0079c531659141344cd1fd0a4f28419497f9722a3daafe3b4186f6b6457e09190a35050565b80516001600160a01b03811681146200024157600080fd5b919050565b6000806000606084860312156200025c57600080fd5b620002678462000229565b9250620002776020850162000229565b9150620002876040850162000229565b90509250925092565b611f4d80620002a06000396000f3fe6080604052600436106101095760003560e01c8063853a65f911610095578063cdd78cfc11610064578063cdd78cfc146102fc578063d8cba25114610312578063dda12b4b14610332578063dfc90cf214610352578063f2fde38b1461037257600080fd5b8063853a65f9146102615780638da5cb5b14610281578063b9ac9a181461029f578063c6530e41146102cc57600080fd5b80633faa6ffa116100dc5780633faa6ffa146101b1578063485ed529146101df578063715018a6146101ff5780637d690e0a146102145780638333903e1461024157600080fd5b8063107a274a1461010e578063169d5a7d14610144578063305a67a8146101595780633235ad1314610179575b600080fd5b34801561011a57600080fd5b5061012e610129366004611783565b610392565b60405161013b91906117ec565b60405180910390f35b610157610152366004611783565b61057b565b005b34801561016557600080fd5b50610157610174366004611783565b610ad8565b34801561018557600080fd5b50600354610199906001600160a01b031681565b6040516001600160a01b03909116815260200161013b565b3480156101bd57600080fd5b506101d16101cc36600461191a565b610bde565b60405190815260200161013b565b3480156101eb57600080fd5b50600454610199906001600160a01b031681565b34801561020b57600080fd5b50610157610f2e565b34801561022057600080fd5b5061023461022f3660046119ca565b610f42565b60405161013b91906119ee565b34801561024d57600080fd5b5061015761025c366004611783565b6112f4565b34801561026d57600080fd5b50600c54610199906001600160a01b031681565b34801561028d57600080fd5b506000546001600160a01b0316610199565b3480156102ab57600080fd5b506102bf6102ba366004611783565b61135f565b60405161013b9190611a65565b3480156102d857600080fd5b506102ec6102e7366004611aa9565b6113c1565b604051901515815260200161013b565b34801561030857600080fd5b506101d1600b5481565b34801561031e57600080fd5b506102bf61032d3660046119ca565b6113ee565b34801561033e57600080fd5b5061015761034d366004611ae3565b611458565b34801561035e57600080fd5b5061015761036d3660046119ca565b611577565b34801561037e57600080fd5b5061015761038d3660046119ca565b61160a565b6103e56040518061010001604052806000815260200160006001600160a01b0316815260200160008152602001606081526020016060815260200160008152602001600081526020016000151581525090565b6000828152600560209081526040918290208251610100810184528154815260018201546001600160a01b03169281019290925260028101549282019290925260038201805491929160608401919061043d90611b1c565b80601f016020809104026020016040519081016040528092919081815260200182805461046990611b1c565b80156104b65780601f1061048b576101008083540402835291602001916104b6565b820191906000526020600020905b81548152906001019060200180831161049957829003601f168201915b505050505081526020016004820180546104cf90611b1c565b80601f01602080910402602001604051908101604052809291908181526020018280546104fb90611b1c565b80156105485780601f1061051d57610100808354040283529160200191610548565b820191906000526020600020905b81548152906001019060200180831161052b57829003601f168201915b5050509183525050600582015460208201526006820154604082015260079091015460ff16151560609091015292915050565b610583611680565b60008181526005602090815260408083208151610100810183528154815260018201546001600160a01b0316938101939093526002810154918301919091526003810180546060840191906105d790611b1c565b80601f016020809104026020016040519081016040528092919081815260200182805461060390611b1c565b80156106505780601f1061062557610100808354040283529160200191610650565b820191906000526020600020905b81548152906001019060200180831161063357829003601f168201915b5050505050815260200160048201805461066990611b1c565b80601f016020809104026020016040519081016040528092919081815260200182805461069590611b1c565b80156106e25780601f106106b7576101008083540402835291602001916106e2565b820191906000526020600020905b8154815290600101906020018083116106c557829003601f168201915b505050918352505060058201546020808301919091526006830154604083015260079092015460ff1615156060909101528101519091506001600160a01b03166107475760405162461bcd60e51b815260040161073e90611b56565b60405180910390fd5b8060e001516107a35760405162461bcd60e51b815260206004820152602260248201527f4d61726b6574706c6163653a204c697374696e67206973206e6f742061637469604482015261766560f01b606482015260840161073e565b80604001513410156108015760405162461bcd60e51b815260206004820152602160248201527f4d61726b6574706c6163653a20496e73756666696369656e74207061796d656e6044820152601d60fa1b606482015260840161073e565b6000612710600b54346108149190611baf565b61081e9190611bc6565b9050600061082c8234611be8565b9050811561087057600c546040516001600160a01b039091169083156108fc029084906000818181858888f1935050505015801561086e573d6000803e3d6000fd5b505b6004546040516001600160a01b039091169082156108fc029083906000818181858888f193505050501580156108aa573d6000803e3d6000fd5b5060048054845160405163224356d960e21b8152928301526001600160a01b03169063890d5b64906000906024016000604051808303818588803b1580156108f157600080fd5b505af1158015610905573d6000803e3d6000fd5b505050505060006040518060a00160405280868152602001336001600160a01b031681526020013481526020014281526020018560a00151426109489190611bfb565b9052600086815260086020908152604080832080546001808201835591855283852086516005909202019081558584015181830180546001600160a01b0319166001600160a01b03909216919091179055858301516002820155606086015160038201556080860151600490910155338085526009845282852080548084018255908652848620018b905589518552600a8452828520818652845293829020805460ff1916909117905587518151348152429381019390935293945091929188917f4796a149c21fb626dad3324569974193fef170cfdb5501fa4b8eec483b5f1395910160405180910390a4600480548551604051638b3fb8b360e01b815292830152600060248301526080604483015260146084830152734d41524b4554504c4143455f505552434841534560601b60a48301526064808301526001600160a01b031690638b3fb8b39060c401600060405180830381600087803b158015610ab057600080fd5b505af1158015610ac4573d6000803e3d6000fd5b5050505050505050610ad560018055565b50565b610ae0611680565b6000818152600560205260409020600101546001600160a01b0316610b175760405162461bcd60e51b815260040161073e90611b56565b6000818152600560205260409020600101546001600160a01b03163314610b805760405162461bcd60e51b815260206004820152601b60248201527f4d61726b6574706c6163653a204e6f74207468652073656c6c65720000000000604482015260640161073e565b60008181526005602052604090819020600701805460ff191690555181907f3de5f6c6d480b0ed131d7db9d21b7e79660e349d57b37f688bcc0000352fb34d90610bcd9042815260200190565b60405180910390a2610ad560018055565b6000610be8611680565b6003546040516334ff670360e11b8152600481018790526000916001600160a01b0316906369fece0690602401600060405180830381865afa158015610c32573d6000803e3d6000fd5b505050506040513d6000823e601f3d908101601f19168201604052610c5a9190810190611c6e565b60408101519091506001600160a01b0316610cc35760405162461bcd60e51b815260206004820152602360248201527f4d61726b6574706c6163653a204461746173657420646f6573206e6f742065786044820152621a5cdd60ea1b606482015260840161073e565b6003546040516331a9108f60e11b81526004810188905233916001600160a01b031690636352211e90602401602060405180830381865afa158015610d0c573d6000803e3d6000fd5b505050506040513d601f19601f82011682018060405250810190610d309190611d94565b6001600160a01b031614610d915760405162461bcd60e51b815260206004820152602260248201527f4d61726b6574706c6163653a204e6f74207468652064617461736574206f776e60448201526132b960f11b606482015260840161073e565b610d9f600280546001019055565b6000610daa60025490565b60408051610100810182528981523360208083019182528284018b81528451808601865260038082526208aa8960eb1b8285015260608601918252608086018d905260a086018c90524260c0870152600160e08701819052600089815260059095529690932085518155935195840180546001600160a01b0319166001600160a01b0390971696909617909555516002830155925193945090928392820190610e539082611dff565b5060808201516004820190610e689082611dff565b5060a0820151600582015560c082015160068083019190915560e0909201516007918201805460ff191691151591909117905560008a8152602092835260408082208054600181810183559184528584200187905533808452938552818320805491820181558352939091209092018490559051899084907f0407c5a47a8199c91a759e4c5d351415837abfadb2c540e466f82ae40dfb513290610f11908c908c904290611ebf565b60405180910390a450915050610f2660018055565b949350505050565b610f366116d9565b610f406000611733565b565b6001600160a01b0381166000908152600960209081526040808320805482518185028101850190935280835260609493830182828015610fa157602002820191906000526020600020905b815481526020019060010190808311610f8d575b505050505090506000805b82518110156110e757600060086000858481518110610fcd57610fcd611ee8565b60200260200101518152602001908152602001600020805480602002602001604051908101604052809291908181526020016000905b8282101561106a5760008481526020908190206040805160a08101825260058602909201805483526001808201546001600160a01b031684860152600282015492840192909252600381015460608401526004015460808301529083529092019101611003565b50505050905060005b81518110156110d257866001600160a01b031682828151811061109857611098611ee8565b6020026020010151602001516001600160a01b0316036110c057836110bc81611efe565b9450505b806110ca81611efe565b915050611073565b505080806110df90611efe565b915050610fac565b5060008167ffffffffffffffff81111561110357611103611881565b60405190808252806020026020018201604052801561116f57816020015b61115c6040518060a001604052806000815260200160006001600160a01b031681526020016000815260200160008152602001600081525090565b8152602001906001900390816111215790505b5090506000805b84518110156112e95760006008600087848151811061119757611197611ee8565b60200260200101518152602001908152602001600020805480602002602001604051908101604052809291908181526020016000905b828210156112345760008481526020908190206040805160a08101825260058602909201805483526001808201546001600160a01b0316848601526002820154928401929092526003810154606084015260040154608083015290835290920191016111cd565b50505050905060005b81518110156112d457886001600160a01b031682828151811061126257611262611ee8565b6020026020010151602001516001600160a01b0316036112c25781818151811061128e5761128e611ee8565b60200260200101518585815181106112a8576112a8611ee8565b602002602001018190525083806112be90611efe565b9450505b806112cc81611efe565b91505061123d565b505080806112e190611efe565b915050611176565b509095945050505050565b6112fc6116d9565b6103e881111561135a5760405162461bcd60e51b8152602060048201526024808201527f4d61726b6574706c6163653a204665652070657263656e7461676520746f6f206044820152630d0d2ced60e31b606482015260840161073e565b600b55565b6000818152600660209081526040918290208054835181840281018401909452808452606093928301828280156113b557602002820191906000526020600020905b8154815260200190600101908083116113a1575b50505050509050919050565b6000818152600a602090815260408083206001600160a01b038616845290915290205460ff165b92915050565b6001600160a01b0381166000908152600760209081526040918290208054835181840281018401909452808452606093928301828280156113b557602002820191906000526020600020908154815260200190600101908083116113a15750505050509050919050565b611460611680565b6000838152600560205260409020600101546001600160a01b03166114975760405162461bcd60e51b815260040161073e90611b56565b6000838152600560205260409020600101546001600160a01b031633146115005760405162461bcd60e51b815260206004820152601b60248201527f4d61726b6574706c6163653a204e6f74207468652073656c6c65720000000000604482015260640161073e565b60008381526005602090815260409182902060028101859055600701805484151560ff1990911681179091558251858152918201524281830152905184917f6a201bb29e5a5f69eb962d3e25feb02c41fc2896777ea758207d634251db19a1919081900360600190a261157260018055565b505050565b61157f6116d9565b6001600160a01b0381166115e85760405162461bcd60e51b815260206004820152602a60248201527f4d61726b6574706c6163653a20496e76616c69642066656520636f6c6c6563746044820152696f72206164647265737360b01b606482015260840161073e565b600c80546001600160a01b0319166001600160a01b0392909216919091179055565b6116126116d9565b6001600160a01b0381166116775760405162461bcd60e51b815260206004820152602660248201527f4f776e61626c653a206e6577206f776e657220697320746865207a65726f206160448201526564647265737360d01b606482015260840161073e565b610ad581611733565b6002600154036116d25760405162461bcd60e51b815260206004820152601f60248201527f5265656e7472616e637947756172643a207265656e7472616e742063616c6c00604482015260640161073e565b6002600155565b6000546001600160a01b03163314610f405760405162461bcd60e51b815260206004820181905260248201527f4f776e61626c653a2063616c6c6572206973206e6f7420746865206f776e6572604482015260640161073e565b600080546001600160a01b038381166001600160a01b0319831681178455604051919092169283917f8be0079c531659141344cd1fd0a4f28419497f9722a3daafe3b4186f6b6457e09190a35050565b60006020828403121561179557600080fd5b5035919050565b60005b838110156117b757818101518382015260200161179f565b50506000910152565b600081518084526117d881602086016020860161179c565b601f01601f19169290920160200192915050565b602081528151602082015260018060a01b03602083015116604082015260408201516060820152600060608301516101008060808501526118316101208501836117c0565b91506080850151601f198584030160a086015261184e83826117c0565b92505060a085015160c085015260c085015160e085015260e08501516118778286018215159052565b5090949350505050565b634e487b7160e01b600052604160045260246000fd5b604051610120810167ffffffffffffffff811182821017156118bb576118bb611881565b60405290565b604051601f8201601f1916810167ffffffffffffffff811182821017156118ea576118ea611881565b604052919050565b600067ffffffffffffffff82111561190c5761190c611881565b50601f01601f191660200190565b6000806000806080858703121561193057600080fd5b8435935060208501359250604085013567ffffffffffffffff81111561195557600080fd5b8501601f8101871361196657600080fd5b8035611979611974826118f2565b6118c1565b81815288602083850101111561198e57600080fd5b81602084016020830137600091810160200191909152949793965093946060013593505050565b6001600160a01b0381168114610ad557600080fd5b6000602082840312156119dc57600080fd5b81356119e7816119b5565b9392505050565b602080825282518282018190526000919060409081850190868401855b82811015611a5857815180518552868101516001600160a01b0316878601528581015186860152606080820151908601526080908101519085015260a09093019290850190600101611a0b565b5091979650505050505050565b6020808252825182820181905260009190848201906040850190845b81811015611a9d57835183529284019291840191600101611a81565b50909695505050505050565b60008060408385031215611abc57600080fd5b8235611ac7816119b5565b946020939093013593505050565b8015158114610ad557600080fd5b600080600060608486031215611af857600080fd5b83359250602084013591506040840135611b1181611ad5565b809150509250925092565b600181811c90821680611b3057607f821691505b602082108103611b5057634e487b7160e01b600052602260045260246000fd5b50919050565b60208082526023908201527f4d61726b6574706c6163653a204c697374696e6720646f6573206e6f742065786040820152621a5cdd60ea1b606082015260800190565b634e487b7160e01b600052601160045260246000fd5b80820281158282048414176113e8576113e8611b99565b600082611be357634e487b7160e01b600052601260045260246000fd5b500490565b818103818111156113e8576113e8611b99565b808201808211156113e8576113e8611b99565b600082601f830112611c1f57600080fd5b8151611c2d611974826118f2565b818152846020838601011115611c4257600080fd5b610f2682602083016020870161179c565b8051611c5e816119b5565b919050565b8051611c5e81611ad5565b600060208284031215611c8057600080fd5b815167ffffffffffffffff80821115611c9857600080fd5b908301906101208286031215611cad57600080fd5b611cb5611897565b825182811115611cc457600080fd5b611cd087828601611c0e565b825250602083015182811115611ce557600080fd5b611cf187828601611c0e565b602083015250611d0360408401611c53565b604082015260608301516060820152608083015182811115611d2457600080fd5b611d3087828601611c0e565b60808301525060a083015182811115611d4857600080fd5b611d5487828601611c0e565b60a083015250611d6660c08401611c63565b60c082015260e083015160e08201526101009150611d85828401611c53565b91810191909152949350505050565b600060208284031215611da657600080fd5b81516119e7816119b5565b601f82111561157257600081815260208120601f850160051c81016020861015611dd85750805b601f850160051c820191505b81811015611df757828155600101611de4565b505050505050565b815167ffffffffffffffff811115611e1957611e19611881565b611e2d81611e278454611b1c565b84611db1565b602080601f831160018114611e625760008415611e4a5750858301515b600019600386901b1c1916600185901b178555611df7565b600085815260208120601f198616915b82811015611e9157888601518255948401946001909101908401611e72565b5085821015611eaf5787850151600019600388901b60f8161c191681555b5050505050600190811b01905550565b838152606060208201526000611ed860608301856117c0565b9050826040830152949350505050565b634e487b7160e01b600052603260045260246000fd5b600060018201611f1057611f10611b99565b506001019056fea2646970667358221220628cdcd83f0579d6eba4b0d931406e31294678a8b15cc599b23cbb68b6bef88a64736f6c63430008110033",
  "linkReferences": {},
  "deployedLinkReferences": {}
}