{
  "_format": "hh-sol-artifact-1",
  "contractName": "VerificationRegistry",
  "sourceName": "contracts/VerificationRegistry.sol",
  "abi": [
    {
      "inputs": [
        {
          "internalType": "address",
          "name": "_datasetRegistry",
          "type": "address"
        },
        {
          "internalType": "uint256",
          "name": "_initialFee",
          "type": "uint256"
        }
      ],
      "stateMutability": "nonpayable",
      "type": "constructor"
    },
    {
      "anonymous": false,
      "inputs": [
        {
          "indexed": true,
          "internalType": "bytes32",
          "name": "role",
          "type": "bytes32"
        },
        {
          "indexed": true,
          "internalType": "bytes32",
          "name": "previousAdminRole",
          "type": "bytes32"
        },
        {
          "indexed": true,
          "internalType": "bytes32",
          "name": "newAdminRole",
          "type": "bytes32"
        }
      ],
      "name": "RoleAdminChanged",
      "type": "event"
    },
    {
      "anonymous": false,
      "inputs": [
        {
          "indexed": true,
          "internalType": "bytes32",
          "name": "role",
          "type": "bytes32"
        },
        {
          "indexed": true,
          "internalType": "address",
          "name": "account",
          "type": "address"
        },
        {
          "indexed": true,
          "internalType": "address",
          "name": "sender",
          "type": "address"
        }
      ],
      "name": "RoleGranted",
      "type": "event"
    },
    {
      "anonymous": false,
      "inputs": [
        {
          "indexed": true,
          "internalType": "bytes32",
          "name": "role",
          "type": "bytes32"
        },
        {
          "indexed": true,
          "internalType": "address",
          "name": "account",
          "type": "address"
        },
        {
          "indexed": true,
          "internalType": "address",
          "name": "sender",
          "type": "address"
        }
      ],
      "name": "RoleRevoked",
      "type": "event"
    },
    {
      "anonymous": false,
      "inputs": [
        {
          "indexed": true,
          "internalType": "uint256",
          "name": "requestId",
          "type": "uint256"
        },
        {
          "indexed": true,
          "internalType": "uint256",
          "name": "datasetId",
          "type": "uint256"
        },
        {
          "indexed": true,
          "internalType": "address",
          "name": "verifier",
          "type": "address"
        },
        {
          "indexed": false,
          "internalType": "string",
          "name": "result",
          "type": "string"
        },
        {
          "indexed": false,
          "internalType": "uint256",
          "name": "timestamp",
          "type": "uint256"
        }
      ],
      "name": "VerificationCompleted",
      "type": "event"
    },
    {
      "anonymous": false,
      "inputs": [
        {
          "indexed": false,
          "internalType": "uint256",
          "name": "fee",
          "type": "uint256"
        },
        {
          "indexed": false,
          "internalType": "uint256",
          "name": "timestamp",
          "type": "uint256"
        }
      ],
      "name": "VerificationFeeUpdated",
      "type": "event"
    },
    {
      "anonymous": false,
      "inputs": [
        {
          "indexed": true,
          "internalType": "uint256",
          "name": "requestId",
          "type": "uint256"
        },
        {
          "indexed": true,
          "internalType": "uint256",
          "name": "datasetId",
          "type": "uint256"
        },
        {
          "indexed": true,
          "internalType": "address",
          "name": "requester",
          "type": "address"
        },
        {
          "indexed": false,
          "internalType": "uint256",
          "name": "timestamp",
          "type": "uint256"
        }
      ],
      "name": "VerificationRequested",
      "type": "event"
    },
    {
      "anonymous": false,
      "inputs": [
        {
          "indexed": true,
          "internalType": "uint256",
          "name": "requestId",
          "type": "uint256"
        },
        {
          "indexed": true,
          "internalType": "address",
          "name": "verifier",
          "type": "address"
        },
        {
          "indexed": false,
          "internalType": "uint256",
          "name": "timestamp",
          "type": "uint256"
        }
      ],
      "name": "VerifierAssigned",
      "type": "event"
    },
    {
      "inputs": [],
      "name": "ADMIN_ROLE",
      "outputs": [
        {
          "internalType": "bytes32",
          "name": "",
          "type": "bytes32"
        }
      ],
      "stateMutability": "view",
      "type": "function"
    },
    {
      "inputs": [],
      "name": "DEFAULT_ADMIN_ROLE",
      "outputs": [
        {
          "internalType": "bytes32",
          "name": "",
          "type": "bytes32"
        }
      ],
      "stateMutability": "view",
      "type": "function"
    },
    {
      "inputs": [],
      "name": "VERIFIER_ROLE",
      "outputs": [
        {
          "internalType": "bytes32",
          "name": "",
          "type": "bytes32"
        }
      ],
      "stateMutability": "view",
      "type": "function"
    },
    {
      "inputs": [
        {
          "internalType": "address",
          "name": "verifier",
          "type": "address"
        }
      ],
      "name": "addVerifier",
      "outputs": [],
      "stateMutability": "nonpayable",
      "type": "function"
    },
    {
      "inputs": [
        {
          "internalType": "uint256",
          "name": "requestId",
          "type": "uint256"
        },
        {
          "internalType": "address",
          "name": "verifier",
          "type": "address"
        }
      ],
      "name": "assignVerifier",
      "outputs": [],
      "stateMutability": "nonpayable",
      "type": "function"
    },
    {
      "inputs": [
        {
          "internalType": "uint256",
          "name": "requestId",
          "type": "uint256"
        },
        {
          "internalType": "string",
          "name": "result",
          "type": "string"
        },
        {
          "internalType": "string",
          "name": "feedback",
          "type": "string"
        }
      ],
      "name": "completeVerification",
      "outputs": [],
      "stateMutability": "nonpayable",
      "type": "function"
    },
    {
      "inputs": [],
      "name": "datasetRegistry",
      "outputs": [
        {
          "internalType": "contract IDatasetRegistry",
          "name": "",
          "type": "address"
        }
      ],
      "stateMutability": "view",
      "type": "function"
    },
    {
      "inputs": [
        {
          "internalType": "uint256",
          "name": "datasetId",
          "type": "uint256"
        }
      ],
      "name": "getDatasetVerificationRequests",
      "outputs": [
        {
          "internalType": "uint256[]",
          "name": "",
          "type": "uint256[]"
        }
      ],
      "stateMutability": "view",
      "type": "function"
    },
    {
      "inputs": [
        {
          "internalType": "bytes32",
          "name": "role",
          "type": "bytes32"
        }
      ],
      "name": "getRoleAdmin",
      "outputs": [
        {
          "internalType": "bytes32",
          "name": "",
          "type": "bytes32"
        }
      ],
      "stateMutability": "view",
      "type": "function"
    },
    {
      "inputs": [
        {
          "internalType": "uint256",
          "name": "datasetId",
          "type": "uint256"
        }
      ],
      "name": "getVerificationRecords",
      "outputs": [
        {
          "components": [
            {
              "internalType": "uint256",
              "name": "datasetId",
              "type": "uint256"
            },
            {
              "internalType": "address",
              "name": "verifier",
              "type": "address"
            },
            {
              "internalType": "string",
              "name": "method",
              "type": "string"
            },
            {
              "internalType": "string",
              "name": "result",
              "type": "string"
            },
            {
              "internalType": "uint256",
              "name": "timestamp",
              "type": "uint256"
            },
            {
              "internalType": "string",
              "name": "details",
              "type": "string"
            }
          ],
          "internalType": "struct DataTypes.VerificationRecord[]",
          "name": "",
          "type": "tuple[]"
        }
      ],
      "stateMutability": "view",
      "type": "function"
    },
    {
      "inputs": [
        {
          "internalType": "uint256",
          "name": "requestId",
          "type": "uint256"
        }
      ],
      "name": "getVerificationRequest",
      "outputs": [
        {
          "components": [
            {
              "internalType": "uint256",
              "name": "id",
              "type": "uint256"
            },
            {
              "internalType": "uint256",
              "name": "datasetId",
              "type": "uint256"
            },
            {
              "internalType": "address",
              "name": "requester",
              "type": "address"
            },
            {
              "internalType": "string",
              "name": "method",
              "type": "string"
            },
            {
              "internalType": "string",
              "name": "details",
              "type": "string"
            },
            {
              "internalType": "address",
              "name": "assignedVerifier",
              "type": "address"
            },
            {
              "internalType": "enum VerificationRegistry.VerificationStatus",
              "name": "status",
              "type": "uint8"
            },
            {
              "internalType": "uint256",
              "name": "requestTime",
              "type": "uint256"
            },
            {
              "internalType": "uint256",
              "name": "completionTime",
              "type": "uint256"
            },
            {
              "internalType": "string",
              "name": "result",
              "type": "string"
            },
            {
              "internalType": "string",
              "name": "feedback",
              "type": "string"
            }
          ],
          "internalType": "struct VerificationRegistry.VerificationRequest",
          "name": "",
          "type": "tuple"
        }
      ],
      "stateMutability": "view",
      "type": "function"
    },
    {
      "inputs": [
        {
          "internalType": "address",
          "name": "verifier",
          "type": "address"
        }
      ],
      "name": "getVerifierAssignments",
      "outputs": [
        {
          "internalType": "uint256[]",
          "name": "",
          "type": "uint256[]"
        }
      ],
      "stateMutability": "view",
      "type": "function"
    },
    {
      "inputs": [
        {
          "internalType": "bytes32",
          "name": "role",
          "type": "bytes32"
        },
        {
          "internalType": "address",
          "name": "account",
          "type": "address"
        }
      ],
      "name": "grantRole",
      "outputs": [],
      "stateMutability": "nonpayable",
      "type": "function"
    },
    {
      "inputs": [
        {
          "internalType": "bytes32",
          "name": "role",
          "type": "bytes32"
        },
        {
          "internalType": "address",
          "name": "account",
          "type": "address"
        }
      ],
      "name": "hasRole",
      "outputs": [
        {
          "internalType": "bool",
          "name": "",
          "type": "bool"
        }
      ],
      "stateMutability": "view",
      "type": "function"
    },
    {
      "inputs": [
        {
          "internalType": "address",
          "name": "verifier",
          "type": "address"
        }
      ],
      "name": "removeVerifier",
      "outputs": [],
      "stateMutability": "nonpayable",
      "type": "function"
    },
    {
      "inputs": [
        {
          "internalType": "bytes32",
          "name": "role",
          "type": "bytes32"
        },
        {
          "internalType": "address",
          "name": "account",
          "type": "address"
        }
      ],
      "name": "renounceRole",
      "outputs": [],
      "stateMutability": "nonpayable",
      "type": "function"
    },
    {
      "inputs": [
        {
          "internalType": "uint256",
          "name": "datasetId",
          "type": "uint256"
        },
        {
          "internalType": "string",
          "name": "method",
          "type": "string"
        },
        {
          "internalType": "string",
          "name": "details",
          "type": "string"
        }
      ],
      "name": "requestVerification",
      "outputs": [],
      "stateMutability": "payable",
      "type": "function"
    },
    {
      "inputs": [
        {
          "internalType": "bytes32",
          "name": "role",
          "type": "bytes32"
        },
        {
          "internalType": "address",
          "name": "account",
          "type": "address"
        }
      ],
      "name": "revokeRole",
      "outputs": [],
      "stateMutability": "nonpayable",
      "type": "function"
    },
    {
      "inputs": [
        {
          "internalType": "uint256",
          "name": "_fee",
          "type": "uint256"
        }
      ],
      "name": "setVerificationFee",
      "outputs": [],
      "stateMutability": "nonpayable",
      "type": "function"
    },
    {
      "inputs": [
        {
          "internalType": "bytes4",
          "name": "interfaceId",
          "type": "bytes4"
        }
      ],
      "name": "supportsInterface",
      "outputs": [
        {
          "internalType": "bool",
          "name": "",
          "type": "bool"
        }
      ],
      "stateMutability": "view",
      "type": "function"
    },
    {
      "inputs": [],
      "name": "verificationFee",
      "outputs": [
        {
          "internalType": "uint256",
          "name": "",
          "type": "uint256"
        }
      ],
      "stateMutability": "view",
      "type": "function"
    },
    {
      "inputs": [
        {
          "internalType": "uint256",
          "name": "amount",
          "type": "uint256"
        },
        {
          "internalType": "address",
          "name": "recipient",
          "type": "address"
        }
      ],
      "name": "withdrawFees",
      "outputs": [],
      "stateMutability": "nonpayable",
      "type": "function"
    }
  ],
  "bytecode": "0x60806040523480156200001157600080fd5b5060405162002753380380620027538339810160408190526200003491620001f6565b600180556001600160a01b038216620000b95760405162461bcd60e51b815260206004820152603660248201527f566572696669636174696f6e52656769737472793a20496e76616c696420646160448201527f7461736574207265676973747279206164647265737300000000000000000000606482015260840160405180910390fd5b600380546001600160a01b0319166001600160a01b0384161790556008819055620000e660003362000146565b620001127fa49807205ce4d355092ef5a8a18f56e8913cf4a201fbe287825b095693c217753362000146565b6200013e7f0ce23c3e399818cfee81a7ab0880f714e53d7672b08df0fa62f2843416e1ea093362000146565b505062000232565b62000152828262000156565b5050565b6000828152602081815260408083206001600160a01b038516845290915290205460ff1662000152576000828152602081815260408083206001600160a01b03851684529091529020805460ff19166001179055620001b23390565b6001600160a01b0316816001600160a01b0316837f2f8788117e7eff1d82e926ec794901d17c78024a50270940304540a733656f0d60405160405180910390a45050565b600080604083850312156200020a57600080fd5b82516001600160a01b03811681146200022257600080fd5b6020939093015192949293505050565b61251180620002426000396000f3fe6080604052600436106101355760003560e01c806391d14854116100ab578063aae9d5f21161006f578063aae9d5f21461038e578063c01261b9146103ae578063ca2dfd0a146103ce578063d547741f146103ee578063dd2cc3f31461040e578063e7705db61461042e57600080fd5b806391d14854146102f6578063a217fddf14610316578063a79ba2001461032b578063a8c278a214610358578063a995e7e91461036e57600080fd5b806336568abe116100fd57806336568abe14610234578063534f56761461025457806375b238fc146102815780638572eb11146102a35780638878a83e146102b65780639000b3d6146102d657600080fd5b806301ffc9a71461013a57806322ccb4741461016f578063248a9ca31461019c5780632f2ff15d146101da5780633235ad13146101fc575b600080fd5b34801561014657600080fd5b5061015a610155366004611bb1565b610450565b60405190151581526020015b60405180910390f35b34801561017b57600080fd5b5061018f61018a366004611bdb565b610487565b6040516101669190611c7c565b3480156101a857600080fd5b506101cc6101b7366004611bdb565b60009081526020819052604090206001015490565b604051908152602001610166565b3480156101e657600080fd5b506101fa6101f5366004611d90565b61080d565b005b34801561020857600080fd5b5060035461021c906001600160a01b031681565b6040516001600160a01b039091168152602001610166565b34801561024057600080fd5b506101fa61024f366004611d90565b610837565b34801561026057600080fd5b5061027461026f366004611bdb565b6108b5565b6040516101669190611dc0565b34801561028d57600080fd5b506101cc60008051602061249c83398151915281565b6101fa6102b1366004611ef3565b610917565b3480156102c257600080fd5b506101fa6102d1366004611d90565b610d30565b3480156102e257600080fd5b506101fa6102f1366004611f60565b610f0a565b34801561030257600080fd5b5061015a610311366004611d90565b610fa7565b34801561032257600080fd5b506101cc600081565b34801561033757600080fd5b5061034b610346366004611bdb565b610fd0565b6040516101669190611f7d565b34801561036457600080fd5b506101cc60085481565b34801561037a57600080fd5b50610274610389366004611f60565b611222565b34801561039a57600080fd5b506101fa6103a9366004611bdb565b61128c565b3480156103ba57600080fd5b506101fa6103c9366004611ef3565b6112e5565b3480156103da57600080fd5b506101fa6103e9366004611f60565b6116d9565b3480156103fa57600080fd5b506101fa610409366004611d90565b611705565b34801561041a57600080fd5b506101fa610429366004611d90565b61172a565b34801561043a57600080fd5b506101cc6000805160206124bc83398151915281565b60006001600160e01b03198216637965db0b60e01b148061048157506301ffc9a760e01b6001600160e01b03198316145b92915050565b6104e360408051610160810182526000808252602082018190529181018290526060808201819052608082015260a081018290529060c08201908152602001600081526020016000815260200160608152602001606081525090565b60008281526004602052604081205490036105195760405162461bcd60e51b81526004016105109061204a565b60405180910390fd5b6000828152600460209081526040918290208251610160810184528154815260018201549281019290925260028101546001600160a01b03169282019290925260038201805491929160608401919061057190612096565b80601f016020809104026020016040519081016040528092919081815260200182805461059d90612096565b80156105ea5780601f106105bf576101008083540402835291602001916105ea565b820191906000526020600020905b8154815290600101906020018083116105cd57829003601f168201915b5050505050815260200160048201805461060390612096565b80601f016020809104026020016040519081016040528092919081815260200182805461062f90612096565b801561067c5780601f106106515761010080835404028352916020019161067c565b820191906000526020600020905b81548152906001019060200180831161065f57829003601f168201915b505050918352505060058201546001600160a01b0381166020830152604090910190600160a01b900460ff1660038111156106b9576106b9611c44565b60038111156106ca576106ca611c44565b815260200160068201548152602001600782015481526020016008820180546106f290612096565b80601f016020809104026020016040519081016040528092919081815260200182805461071e90612096565b801561076b5780601f106107405761010080835404028352916020019161076b565b820191906000526020600020905b81548152906001019060200180831161074e57829003601f168201915b5050505050815260200160098201805461078490612096565b80601f01602080910402602001604051908101604052809291908181526020018280546107b090612096565b80156107fd5780601f106107d2576101008083540402835291602001916107fd565b820191906000526020600020905b8154815290600101906020018083116107e057829003601f168201915b5050505050815250509050919050565b60008281526020819052604090206001015461082881611854565b6108328383611861565b505050565b6001600160a01b03811633146108a75760405162461bcd60e51b815260206004820152602f60248201527f416363657373436f6e74726f6c3a2063616e206f6e6c792072656e6f756e636560448201526e103937b632b9903337b91039b2b63360891b6064820152608401610510565b6108b182826118e5565b5050565b60008181526005602090815260409182902080548351818402810184019094528084526060939283018282801561090b57602002820191906000526020600020905b8154815260200190600101908083116108f7575b50505050509050919050565b61091f61194a565b6003546040516334ff670360e11b8152600481018590526000916001600160a01b0316906369fece0690602401600060405180830381865afa158015610969573d6000803e3d6000fd5b505050506040513d6000823e601f3d908101601f19168201604052610991919081019061213d565b60408101519091506001600160a01b0316610a035760405162461bcd60e51b815260206004820152602c60248201527f566572696669636174696f6e52656769737472793a204461746173657420646f60448201526b195cc81b9bdd08195e1a5cdd60a21b6064820152608401610510565b8060c0015115610a6c5760405162461bcd60e51b815260206004820152602e60248201527f566572696669636174696f6e52656769737472793a204461746173657420616c60448201526d1c9958591e481d995c9a599a595960921b6064820152608401610510565b600854341015610acd5760405162461bcd60e51b815260206004820152602660248201527f566572696669636174696f6e52656769737472793a20496e73756666696369656044820152656e742066656560d01b6064820152608401610510565b610adb600280546001019055565b6000610ae660025490565b90506000604051806101600160405280838152602001878152602001336001600160a01b0316815260200186815260200185815260200160006001600160a01b0316815260200160006003811115610b4057610b40611c44565b8152426020808301919091526000604080840182905280518084018252828152606080860191909152815180850183528381526080909501949094528682526004835290819020845181559184015160018301558301516002820180546001600160a01b0319166001600160a01b039092169190911790559082015191925082916003820190610bd090826122b1565b5060808201516004820190610be590826122b1565b5060a08201516005820180546001600160a01b039092166001600160a01b031983168117825560c0850151926001600160a81b03191617600160a01b836003811115610c3357610c33611c44565b021790555060e0820151600682015561010082015160078201556101208201516008820190610c6290826122b1565b506101408201516009820190610c7890826122b1565b505050600086815260056020908152604080832080546001810182559084529190922001839055513390879084907fc22e5dec727df8e894121dfe6a5bf0d06808a3e0557a034421938fbdf80b4e8490610cd59042815260200190565b60405180910390a4600854341115610d245760085433906108fc90610cfa9034612387565b6040518115909202916000818181858888f19350505050158015610d22573d6000803e3d6000fd5b505b50505061083260018055565b60008051602061249c833981519152610d4881611854565b6000838152600460205260408120549003610d755760405162461bcd60e51b81526004016105109061204a565b60008084815260046020526040902060050154600160a01b900460ff166003811115610da357610da3611c44565b14610e025760405162461bcd60e51b815260206004820152602960248201527f566572696669636174696f6e52656769737472793a2052657175657374206e6f604482015268742070656e64696e6760b81b6064820152608401610510565b610e1a6000805160206124bc83398151915283610fa7565b610e7e5760405162461bcd60e51b815260206004820152602f60248201527f566572696669636174696f6e52656769737472793a204164647265737320697360448201526e103737ba1030903b32b934b334b2b960891b6064820152608401610510565b600083815260046020908152604080832060050180546001600160a01b0387166001600160a81b03199091168117600160a01b17909155808452600683528184208054600181018255908552938390209093018690555142815285917f3324abd0c280f6c64524af260d82a07a15655f55b60ff0eda83e75efc4d9b5df910160405180910390a3505050565b60008051602061249c833981519152610f2281611854565b6001600160a01b038216610f8f5760405162461bcd60e51b815260206004820152602e60248201527f566572696669636174696f6e52656769737472793a20496e76616c696420766560448201526d726966696572206164647265737360901b6064820152608401610510565b6108b16000805160206124bc8339815191528361080d565b6000918252602082815260408084206001600160a01b0393909316845291905290205460ff1690565b606060076000838152602001908152602001600020805480602002602001604051908101604052809291908181526020016000905b828210156112175760008481526020908190206040805160c081018252600686029092018054835260018101546001600160a01b0316938301939093526002830180549293929184019161105890612096565b80601f016020809104026020016040519081016040528092919081815260200182805461108490612096565b80156110d15780601f106110a6576101008083540402835291602001916110d1565b820191906000526020600020905b8154815290600101906020018083116110b457829003601f168201915b505050505081526020016003820180546110ea90612096565b80601f016020809104026020016040519081016040528092919081815260200182805461111690612096565b80156111635780601f1061113857610100808354040283529160200191611163565b820191906000526020600020905b81548152906001019060200180831161114657829003601f168201915b505050505081526020016004820154815260200160058201805461118690612096565b80601f01602080910402602001604051908101604052809291908181526020018280546111b290612096565b80156111ff5780601f106111d4576101008083540402835291602001916111ff565b820191906000526020600020905b8154815290600101906020018083116111e257829003601f168201915b50505050508152505081526020019060010190611005565b505050509050919050565b6001600160a01b03811660009081526006602090815260409182902080548351818402810184019094528084526060939283018282801561090b57602002820191906000526020600020908154815260200190600101908083116108f75750505050509050919050565b60008051602061249c8339815191526112a481611854565b6008829055604080518381524260208201527f28bf830139b6fae98d6890d2860d39927b365d01c78df9ebfcb3a4a35749c2b7910160405180910390a15050565b6112ed61194a565b6000838152600460205260408120805490910361131c5760405162461bcd60e51b81526004016105109061204a565b60016005820154600160a01b900460ff16600381111561133e5761133e611c44565b1461139e5760405162461bcd60e51b815260206004820152602a60248201527f566572696669636174696f6e52656769737472793a2052657175657374206e6f6044820152691d08185c1c1c9bdd995960b21b6064820152608401610510565b60058101546001600160a01b03163314806113cc57506113cc60008051602061249c83398151915233610fa7565b6114245760405162461bcd60e51b8152602060048201526024808201527f566572696669636174696f6e52656769737472793a204e6f7420617574686f726044820152631a5e995960e21b6064820152608401610510565b60058101805460ff60a01b1916600360a01b1790554260078201556008810161144d84826122b1565b506009810161145c83826122b1565b506040805160c0810182526001830154815260058301546001600160a01b031660208201526003830180546000938301919061149790612096565b80601f01602080910402602001604051908101604052809291908181526020018280546114c390612096565b80156115105780601f106114e557610100808354040283529160200191611510565b820191906000526020600020905b8154815290600101906020018083116114f357829003601f168201915b50505091835250506020808201879052426040808401919091526060909201869052600185810154600090815260078352838120805480840182559082529083902085516006909202019081559184015190820180546001600160a01b0319166001600160a01b03909216919091179055908201519192508291600282019061159990826122b1565b50606082015160038201906115ae90826122b1565b506080820151600482015560a082015160058201906115cd90826122b1565b505050600582015460018301546040516001600160a01b039092169187907fb1011eed3f071a077049c38207d5fec43455b691f0ef45c0813b92afc4a917279061161a908990429061239a565b60405180910390a4604080518082019091526008815267159154925192515160c21b6020918201528451908501207fc46f6678f4751b4522b61a60cf039ec06e72eba276fb7fce44c0359ce310e935016116ce57600354600183015460405163312cf56760e11b81526001600160a01b0390921691636259eace916116a59160040190815260200190565b600060405180830381600087803b1580156116bf57600080fd5b505af1925050508015610d2457505b505061083260018055565b60008051602061249c8339815191526116f181611854565b6108b16000805160206124bc833981519152835b60008281526020819052604090206001015461172081611854565b61083283836118e5565b60008051602061249c83398151915261174281611854565b6001600160a01b0382166117b05760405162461bcd60e51b815260206004820152602f60248201527f566572696669636174696f6e52656769737472793a20496e76616c696420726560448201526e63697069656e74206164647265737360881b6064820152608401610510565b6000831180156117c05750478311155b6118185760405162461bcd60e51b8152602060048201526024808201527f566572696669636174696f6e52656769737472793a20496e76616c696420616d6044820152631bdd5b9d60e21b6064820152608401610510565b6040516001600160a01b0383169084156108fc029085906000818181858888f1935050505015801561184e573d6000803e3d6000fd5b50505050565b61185e81336119a3565b50565b61186b8282610fa7565b6108b1576000828152602081815260408083206001600160a01b03851684529091529020805460ff191660011790556118a13390565b6001600160a01b0316816001600160a01b0316837f2f8788117e7eff1d82e926ec794901d17c78024a50270940304540a733656f0d60405160405180910390a45050565b6118ef8282610fa7565b156108b1576000828152602081815260408083206001600160a01b0385168085529252808320805460ff1916905551339285917ff6391f5c32d9c69d2a47ea670b442974b53935d1edc7fd64eb21e047a839171b9190a45050565b60026001540361199c5760405162461bcd60e51b815260206004820152601f60248201527f5265656e7472616e637947756172643a207265656e7472616e742063616c6c006044820152606401610510565b6002600155565b6119ad8282610fa7565b6108b1576119ba816119fc565b6119c5836020611a0e565b6040516020016119d69291906123bc565b60408051601f198184030181529082905262461bcd60e51b825261051091600401612431565b60606104816001600160a01b03831660145b60606000611a1d836002612444565b611a2890600261245b565b67ffffffffffffffff811115611a4057611a40611e04565b6040519080825280601f01601f191660200182016040528015611a6a576020820181803683370190505b509050600360fc1b81600081518110611a8557611a8561246e565b60200101906001600160f81b031916908160001a905350600f60fb1b81600181518110611ab457611ab461246e565b60200101906001600160f81b031916908160001a9053506000611ad8846002612444565b611ae390600161245b565b90505b6001811115611b5b576f181899199a1a9b1b9c1cb0b131b232b360811b85600f1660108110611b1757611b1761246e565b1a60f81b828281518110611b2d57611b2d61246e565b60200101906001600160f81b031916908160001a90535060049490941c93611b5481612484565b9050611ae6565b508315611baa5760405162461bcd60e51b815260206004820181905260248201527f537472696e67733a20686578206c656e67746820696e73756666696369656e746044820152606401610510565b9392505050565b600060208284031215611bc357600080fd5b81356001600160e01b031981168114611baa57600080fd5b600060208284031215611bed57600080fd5b5035919050565b60005b83811015611c0f578181015183820152602001611bf7565b50506000910152565b60008151808452611c30816020860160208601611bf4565b601f01601f19169290920160200192915050565b634e487b7160e01b600052602160045260246000fd5b60048110611c7857634e487b7160e01b600052602160045260246000fd5b9052565b60208152815160208201526020820151604082015260006040830151611cad60608401826001600160a01b03169052565b506060830151610160806080850152611cca610180850183611c18565b91506080850151601f19808685030160a0870152611ce88483611c18565b935060a08701519150611d0660c08701836001600160a01b03169052565b60c08701519150611d1a60e0870183611c5a565b60e08701519150610100828188015280880151925050610120828188015280880151925050610140818786030181880152611d558584611c18565b908801518782039092018488015293509050611d718382611c18565b9695505050505050565b6001600160a01b038116811461185e57600080fd5b60008060408385031215611da357600080fd5b823591506020830135611db581611d7b565b809150509250929050565b6020808252825182820181905260009190848201906040850190845b81811015611df857835183529284019291840191600101611ddc565b50909695505050505050565b634e487b7160e01b600052604160045260246000fd5b604051610120810167ffffffffffffffff81118282101715611e3e57611e3e611e04565b60405290565b604051601f8201601f1916810167ffffffffffffffff81118282101715611e6d57611e6d611e04565b604052919050565b600067ffffffffffffffff821115611e8f57611e8f611e04565b50601f01601f191660200190565b600082601f830112611eae57600080fd5b8135611ec1611ebc82611e75565b611e44565b818152846020838601011115611ed657600080fd5b816020850160208301376000918101602001919091529392505050565b600080600060608486031215611f0857600080fd5b83359250602084013567ffffffffffffffff80821115611f2757600080fd5b611f3387838801611e9d565b93506040860135915080821115611f4957600080fd5b50611f5686828701611e9d565b9150509250925092565b600060208284031215611f7257600080fd5b8135611baa81611d7b565b60006020808301818452808551808352604092508286019150828160051b87010184880160005b8381101561203c57888303603f19018552815180518452878101516001600160a01b0316888501528681015160c088860181905290611fe582870182611c18565b91505060608083015186830382880152611fff8382611c18565b92505050608080830151818701525060a080830151925085820381870152506120288183611c18565b968901969450505090860190600101611fa4565b509098975050505050505050565b6020808252602c908201527f566572696669636174696f6e52656769737472793a205265717565737420646f60408201526b195cc81b9bdd08195e1a5cdd60a21b606082015260800190565b600181811c908216806120aa57607f821691505b6020821081036120ca57634e487b7160e01b600052602260045260246000fd5b50919050565b600082601f8301126120e157600080fd5b81516120ef611ebc82611e75565b81815284602083860101111561210457600080fd5b612115826020830160208701611bf4565b949350505050565b805161212881611d7b565b919050565b8051801515811461212857600080fd5b60006020828403121561214f57600080fd5b815167ffffffffffffffff8082111561216757600080fd5b90830190610120828603121561217c57600080fd5b612184611e1a565b82518281111561219357600080fd5b61219f878286016120d0565b8252506020830151828111156121b457600080fd5b6121c0878286016120d0565b6020830152506121d26040840161211d565b6040820152606083015160608201526080830151828111156121f357600080fd5b6121ff878286016120d0565b60808301525060a08301518281111561221757600080fd5b612223878286016120d0565b60a08301525061223560c0840161212d565b60c082015260e083015160e0820152610100915061225482840161211d565b91810191909152949350505050565b601f82111561083257600081815260208120601f850160051c8101602086101561228a5750805b601f850160051c820191505b818110156122a957828155600101612296565b505050505050565b815167ffffffffffffffff8111156122cb576122cb611e04565b6122df816122d98454612096565b84612263565b602080601f83116001811461231457600084156122fc5750858301515b600019600386901b1c1916600185901b1785556122a9565b600085815260208120601f198616915b8281101561234357888601518255948401946001909101908401612324565b50858210156123615787850151600019600388901b60f8161c191681555b5050505050600190811b01905550565b634e487b7160e01b600052601160045260246000fd5b8181038181111561048157610481612371565b6040815260006123ad6040830185611c18565b90508260208301529392505050565b7f416363657373436f6e74726f6c3a206163636f756e74200000000000000000008152600083516123f4816017850160208801611bf4565b7001034b99036b4b9b9b4b733903937b6329607d1b6017918401918201528351612425816028840160208801611bf4565b01602801949350505050565b602081526000611baa6020830184611c18565b808202811582820484141761048157610481612371565b8082018082111561048157610481612371565b634e487b7160e01b600052603260045260246000fd5b60008161249357612493612371565b50600019019056fea49807205ce4d355092ef5a8a18f56e8913cf4a201fbe287825b095693c217750ce23c3e399818cfee81a7ab0880f714e53d7672b08df0fa62f2843416e1ea09a2646970667358221220414c6d7b587d9d6b0d0a8f5bbf63544c1fb41e82c379a195abd2ca19e9cb998564736f6c63430008110033",
  "linkReferences": {},
  "deployedLinkReferences": {}
}