{
  "_format": "hh-sol-artifact-1",
  "contractName": "DataProvChain",
  "sourceName": "contracts/DataProvChain.sol",
  "abi": [
    {
      "inputs": [],
      "stateMutability": "nonpayable",
      "type": "constructor"
    },
    {
      "anonymous": false,
      "inputs": [
        {
          "indexed": false,
          "internalType": "string",
          "name": "contractName",
          "type": "string"
        },
        {
          "indexed": false,
          "internalType": "address",
          "name": "contractAddress",
          "type": "address"
        }
      ],
      "name": "ContractAddressUpdated",
      "type": "event"
    },
    {
      "anonymous": false,
      "inputs": [
        {
          "indexed": false,
          "internalType": "address",
          "name": "feeCollector",
          "type": "address"
        }
      ],
      "name": "FeeCollectorUpdated",
      "type": "event"
    },
    {
      "anonymous": false,
      "inputs": [
        {
          "indexed": false,
          "internalType": "uint8",
          "name": "version",
          "type": "uint8"
        }
      ],
      "name": "Initialized",
      "type": "event"
    },
    {
      "anonymous": false,
      "inputs": [
        {
          "indexed": true,
          "internalType": "address",
          "name": "previousOwner",
          "type": "address"
        },
        {
          "indexed": true,
          "internalType": "address",
          "name": "newOwner",
          "type": "address"
        }
      ],
      "name": "OwnershipTransferred",
      "type": "event"
    },
    {
      "anonymous": false,
      "inputs": [
        {
          "indexed": false,
          "internalType": "address",
          "name": "account",
          "type": "address"
        }
      ],
      "name": "Paused",
      "type": "event"
    },
    {
      "anonymous": false,
      "inputs": [
        {
          "indexed": false,
          "internalType": "address",
          "name": "account",
          "type": "address"
        }
      ],
      "name": "Unpaused",
      "type": "event"
    },
    {
      "inputs": [],
      "name": "attributionManager",
      "outputs": [
        {
          "internalType": "contract IAttributionManager",
          "name": "",
          "type": "address"
        }
      ],
      "stateMutability": "view",
      "type": "function"
    },
    {
      "inputs": [
        {
          "internalType": "uint256",
          "name": "datasetId",
          "type": "uint256"
        },
        {
          "internalType": "uint256",
          "name": "price",
          "type": "uint256"
        },
        {
          "internalType": "string",
          "name": "licenseType",
          "type": "string"
        },
        {
          "internalType": "uint256",
          "name": "duration",
          "type": "uint256"
        }
      ],
      "name": "createMarketplaceListing",
      "outputs": [
        {
          "internalType": "uint256",
          "name": "",
          "type": "uint256"
        }
      ],
      "stateMutability": "nonpayable",
      "type": "function"
    },
    {
      "inputs": [],
      "name": "dataDAO",
      "outputs": [
        {
          "internalType": "contract IDataDAO",
          "name": "",
          "type": "address"
        }
      ],
      "stateMutability": "view",
      "type": "function"
    },
    {
      "inputs": [],
      "name": "datasetRegistry",
      "outputs": [
        {
          "internalType": "contract IDatasetRegistry",
          "name": "",
          "type": "address"
        }
      ],
      "stateMutability": "view",
      "type": "function"
    },
    {
      "inputs": [],
      "name": "feeCollector",
      "outputs": [
        {
          "internalType": "address",
          "name": "",
          "type": "address"
        }
      ],
      "stateMutability": "view",
      "type": "function"
    },
    {
      "inputs": [],
      "name": "filecoinDeal",
      "outputs": [
        {
          "internalType": "contract IFilecoinDeal",
          "name": "",
          "type": "address"
        }
      ],
      "stateMutability": "view",
      "type": "function"
    },
    {
      "inputs": [
        {
          "internalType": "address",
          "name": "_datasetRegistry",
          "type": "address"
        },
        {
          "internalType": "address",
          "name": "_attributionManager",
          "type": "address"
        },
        {
          "internalType": "address",
          "name": "_marketplace",
          "type": "address"
        },
        {
          "internalType": "address",
          "name": "_dataDAO",
          "type": "address"
        },
        {
          "internalType": "address",
          "name": "_filecoinDeal",
          "type": "address"
        },
        {
          "internalType": "address",
          "name": "_feeCollector",
          "type": "address"
        }
      ],
      "name": "initialize",
      "outputs": [],
      "stateMutability": "nonpayable",
      "type": "function"
    },
    {
      "inputs": [],
      "name": "marketplace",
      "outputs": [
        {
          "internalType": "contract IMarketplace",
          "name": "",
          "type": "address"
        }
      ],
      "stateMutability": "view",
      "type": "function"
    },
    {
      "inputs": [],
      "name": "owner",
      "outputs": [
        {
          "internalType": "address",
          "name": "",
          "type": "address"
        }
      ],
      "stateMutability": "view",
      "type": "function"
    },
    {
      "inputs": [],
      "name": "pause",
      "outputs": [],
      "stateMutability": "nonpayable",
      "type": "function"
    },
    {
      "inputs": [],
      "name": "paused",
      "outputs": [
        {
          "internalType": "bool",
          "name": "",
          "type": "bool"
        }
      ],
      "stateMutability": "view",
      "type": "function"
    },
    {
      "inputs": [
        {
          "internalType": "uint256",
          "name": "datasetId",
          "type": "uint256"
        },
        {
          "internalType": "uint256",
          "name": "modelId",
          "type": "uint256"
        },
        {
          "internalType": "string",
          "name": "usageType",
          "type": "string"
        },
        {
          "internalType": "uint256",
          "name": "impactScore",
          "type": "uint256"
        },
        {
          "internalType": "string",
          "name": "details",
          "type": "string"
        }
      ],
      "name": "recordDatasetUsage",
      "outputs": [],
      "stateMutability": "nonpayable",
      "type": "function"
    },
    {
      "inputs": [
        {
          "internalType": "string",
          "name": "cid",
          "type": "string"
        },
        {
          "internalType": "string",
          "name": "dataType",
          "type": "string"
        },
        {
          "internalType": "string",
          "name": "source",
          "type": "string"
        },
        {
          "internalType": "string",
          "name": "license",
          "type": "string"
        },
        {
          "components": [
            {
              "internalType": "address",
              "name": "wallet",
              "type": "address"
            },
            {
              "internalType": "string",
              "name": "name",
              "type": "string"
            },
            {
              "internalType": "uint8",
              "name": "share",
              "type": "uint8"
            }
          ],
          "internalType": "struct DataTypes.Contributor[]",
          "name": "contributors",
          "type": "tuple[]"
        },
        {
          "internalType": "string",
          "name": "metadataURI",
          "type": "string"
        },
        {
          "internalType": "uint64",
          "name": "size",
          "type": "uint64"
        },
        {
          "internalType": "int64",
          "name": "startEpoch",
          "type": "int64"
        },
        {
          "internalType": "int64",
          "name": "endEpoch",
          "type": "int64"
        }
      ],
      "name": "registerDatasetWithStorageDeal",
      "outputs": [
        {
          "internalType": "uint256",
          "name": "",
          "type": "uint256"
        },
        {
          "internalType": "bytes32",
          "name": "",
          "type": "bytes32"
        }
      ],
      "stateMutability": "nonpayable",
      "type": "function"
    },
    {
      "inputs": [],
      "name": "renounceOwnership",
      "outputs": [],
      "stateMutability": "nonpayable",
      "type": "function"
    },
    {
      "inputs": [
        {
          "internalType": "address",
          "name": "newOwner",
          "type": "address"
        }
      ],
      "name": "transferOwnership",
      "outputs": [],
      "stateMutability": "nonpayable",
      "type": "function"
    },
    {
      "inputs": [],
      "name": "unpause",
      "outputs": [],
      "stateMutability": "nonpayable",
      "type": "function"
    },
    {
      "inputs": [
        {
          "internalType": "string",
          "name": "contractName",
          "type": "string"
        },
        {
          "internalType": "address",
          "name": "contractAddress",
          "type": "address"
        }
      ],
      "name": "updateContractAddress",
      "outputs": [],
      "stateMutability": "nonpayable",
      "type": "function"
    },
    {
      "inputs": [
        {
          "internalType": "address",
          "name": "_feeCollector",
          "type": "address"
        }
      ],
      "name": "updateFeeCollector",
      "outputs": [],
      "stateMutability": "nonpayable",
      "type": "function"
    }
  ],
  "bytecode": "0x608060405234801561001057600080fd5b5061001a3361003e565b6000805460ff60a01b19169055600680546001600160a01b0319163317905561008e565b600080546001600160a01b038381166001600160a01b0319831681178455604051919092169283917f8be0079c531659141344cd1fd0a4f28419497f9722a3daafe3b4186f6b6457e09190a35050565b6117238061009d6000396000f3fe608060405234801561001057600080fd5b50600436106101165760003560e01c80638456cb59116100a2578063c4ab931511610071578063c4ab93151461023b578063cc2a9a5b1461024e578063d2c35ce814610261578063e32739c814610274578063f2fde38b1461028757600080fd5b80638456cb59146101fc5780638da5cb5b14610204578063abc8c7af14610215578063c415b95c1461022857600080fd5b80633f4ba83a116100e95780633f4ba83a14610194578063485ed5291461019c5780635c975abb146101af5780636fa27fcb146101cc578063715018a6146101f457600080fd5b806316b4d5da1461011b5780631db88126146101415780633235ad131461016c57806338aed2f71461017f575b600080fd5b61012e610129366004611036565b61029a565b6040519081526020015b60405180910390f35b600554610154906001600160a01b031681565b6040516001600160a01b039091168152602001610138565b600154610154906001600160a01b031681565b61019261018d3660046110aa565b610326565b005b610192610650565b600254610154906001600160a01b031681565b600054600160a01b900460ff166040519015158152602001610138565b6101df6101da366004611224565b610662565b60408051928352602083019190915201610138565b610192610793565b6101926107a5565b6000546001600160a01b0316610154565b600354610154906001600160a01b031681565b600654610154906001600160a01b031681565b61019261024936600461134d565b6107b5565b61019261025c3660046113ce565b6108ae565b61019261026f366004611442565b610c7c565b600454610154906001600160a01b031681565b610192610295366004611442565b610cfe565b60006102a4610d77565b600354604051631fd537fd60e11b81526001600160a01b0390911690633faa6ffa906102da9088908890889088906004016114aa565b6020604051808303816000875af11580156102f9573d6000803e3d6000fd5b505050506040513d601f19601f8201168201806040525081019061031d91906114da565b95945050505050565b61032e610dc4565b6001600160a01b0381166103995760405162461bcd60e51b815260206004820152602760248201527f4461746150726f76436861696e3a20496e76616c696420636f6e7472616374206044820152666164647265737360c81b60648201526084015b60405180910390fd5b815160208084019190912060408051808201909152600f81526e64617461736574526567697374727960881b9201919091527f194fd788f9288eb4d94fd902955dcb59e078ad828a07b4b72d8250fbba8d1bf7810161041257600180546001600160a01b0319166001600160a01b038416179055610612565b60408051808201909152601281527130ba3a3934b13aba34b7b726b0b730b3b2b960711b6020909101527fb694a15c971c430267c39de6b92040b179c0dc775a450f9ff28fb890149ede82810161048357600280546001600160a01b0319166001600160a01b038416179055610612565b60408051808201909152600b81526a6d61726b6574706c61636560a81b6020909101527f3109177735cbbf88177629269ebb84e7f590d3e075c5b46ab1dc7abb6ebc393881016104ed57600380546001600160a01b0319166001600160a01b038416179055610612565b6040805180820190915260078152666461746144414f60c81b6020909101527f74798650990312aedafc5d0d2848d240fa5010a21334f683b9324da7256d09ab810161055357600480546001600160a01b0319166001600160a01b038416179055610612565b60408051808201909152600c81526b199a5b1958dbda5b9119585b60a21b6020909101527fef08ae48fd876f34d89719606a407b5fb642d0c5ecb9a1bcd562a6f7a0b4f40881016105be57600580546001600160a01b0319166001600160a01b038416179055610612565b60405162461bcd60e51b8152602060048201526024808201527f4461746150726f76436861696e3a20496e76616c696420636f6e7472616374206044820152636e616d6560e01b6064820152608401610390565b7fa42de6429c1410f4470a8ff5afeeae27c734519ac1693e8eb58798a81715c94783836040516106439291906114f3565b60405180910390a1505050565b610658610dc4565b610660610e1e565b565b60008061066d610d77565b600154604051631282237560e31b81526000916001600160a01b0316906394111ba8906106a8908f908f908f908f908f908f9060040161151d565b6020604051808303816000875af11580156106c7573d6000803e3d6000fd5b505050506040513d601f19601f820116820180604052508101906106eb91906114da565b90506000600560009054906101000a90046001600160a01b03166001600160a01b0316639a03d9448e8960008a8a60006040518763ffffffff1660e01b815260040161073c9695949392919061160d565b6020604051808303816000875af115801561075b573d6000803e3d6000fd5b505050506040513d601f19601f8201168201806040525081019061077f91906114da565b919d919c50909a5050505050505050505050565b61079b610dc4565b6106606000610e73565b6107ad610dc4565b610660610ec3565b6107bd610d77565b60015460408051602080820188905282518083039091018152818301928390526303c2dc8360e21b9092526001600160a01b0390921691630f0b720c9161080d9189919088908790604401611657565b600060405180830381600087803b15801561082757600080fd5b505af115801561083b573d6000803e3d6000fd5b5050600254604051638b3fb8b360e01b81526001600160a01b039091169250638b3fb8b391506108759088908890889088906004016114aa565b600060405180830381600087803b15801561088f57600080fd5b505af11580156108a3573d6000803e3d6000fd5b505050505050505050565b600054600160b01b900460ff16158080156108d657506000546001600160a81b90910460ff16105b806108f75750303b1580156108f75750600054600160a81b900460ff166001145b61095a5760405162461bcd60e51b815260206004820152602e60248201527f496e697469616c697a61626c653a20636f6e747261637420697320616c72656160448201526d191e481a5b9a5d1a585b1a5e995960921b6064820152608401610390565b6000805460ff60a81b1916600160a81b1790558015610987576000805460ff60b01b1916600160b01b1790555b61098f610dc4565b6001600160a01b0387166109fd5760405162461bcd60e51b815260206004820152602f60248201527f4461746150726f76436861696e3a20496e76616c69642064617461736574207260448201526e65676973747279206164647265737360881b6064820152608401610390565b6001600160a01b038616610a6e5760405162461bcd60e51b815260206004820152603260248201527f4461746150726f76436861696e3a20496e76616c6964206174747269627574696044820152716f6e206d616e61676572206164647265737360701b6064820152608401610390565b6001600160a01b038516610ad75760405162461bcd60e51b815260206004820152602a60248201527f4461746150726f76436861696e3a20496e76616c6964206d61726b6574706c616044820152696365206164647265737360b01b6064820152608401610390565b6001600160a01b038416610b385760405162461bcd60e51b815260206004820152602260248201527f4461746150726f76436861696e3a20496e76616c69642044414f206164647265604482015261737360f01b6064820152608401610390565b6001600160a01b038316610ba35760405162461bcd60e51b815260206004820152602c60248201527f4461746150726f76436861696e3a20496e76616c69642046696c65636f696e2060448201526b6465616c206164647265737360a01b6064820152608401610390565b6001600160a01b038216610bc95760405162461bcd60e51b8152600401610390906116a1565b600180546001600160a01b03199081166001600160a01b038a811691909117909255600280548216898416179055600380548216888416179055600480548216878416179055600580548216868416179055600680549091169184169190911790558015610c73576000805460ff60b01b19169055604051600181527f7f26b83ff96e1f2b6a682f133852f6798a09c465da95921460cefb38474024989060200160405180910390a15b50505050505050565b610c84610dc4565b6001600160a01b038116610caa5760405162461bcd60e51b8152600401610390906116a1565b600680546001600160a01b0319166001600160a01b0383169081179091556040519081527fe5693914d19c789bdee50a362998c0bc8d035a835f9871da5d51152f0582c34f9060200160405180910390a150565b610d06610dc4565b6001600160a01b038116610d6b5760405162461bcd60e51b815260206004820152602660248201527f4f776e61626c653a206e6577206f776e657220697320746865207a65726f206160448201526564647265737360d01b6064820152608401610390565b610d7481610e73565b50565b600054600160a01b900460ff16156106605760405162461bcd60e51b815260206004820152601060248201526f14185d5cd8589b194e881c185d5cd95960821b6044820152606401610390565b6000546001600160a01b031633146106605760405162461bcd60e51b815260206004820181905260248201527f4f776e61626c653a2063616c6c6572206973206e6f7420746865206f776e65726044820152606401610390565b610e26610f06565b6000805460ff60a01b191690557f5db9ee0a495bf2e6ff9c91a7834c1ba4fdd244a5e8aa4e537bd38aeae4b073aa335b6040516001600160a01b03909116815260200160405180910390a1565b600080546001600160a01b038381166001600160a01b0319831681178455604051919092169283917f8be0079c531659141344cd1fd0a4f28419497f9722a3daafe3b4186f6b6457e09190a35050565b610ecb610d77565b6000805460ff60a01b1916600160a01b1790557f62e78cea01bee320cd4e420270b5ea74000d11b0c9f74754ebdbfc544b05a258610e563390565b600054600160a01b900460ff166106605760405162461bcd60e51b815260206004820152601460248201527314185d5cd8589b194e881b9bdd081c185d5cd95960621b6044820152606401610390565b634e487b7160e01b600052604160045260246000fd5b6040516060810167ffffffffffffffff81118282101715610f8f57610f8f610f56565b60405290565b604051601f8201601f1916810167ffffffffffffffff81118282101715610fbe57610fbe610f56565b604052919050565b600082601f830112610fd757600080fd5b813567ffffffffffffffff811115610ff157610ff1610f56565b611004601f8201601f1916602001610f95565b81815284602083860101111561101957600080fd5b816020850160208301376000918101602001919091529392505050565b6000806000806080858703121561104c57600080fd5b8435935060208501359250604085013567ffffffffffffffff81111561107157600080fd5b61107d87828801610fc6565b949793965093946060013593505050565b80356001600160a01b03811681146110a557600080fd5b919050565b600080604083850312156110bd57600080fd5b823567ffffffffffffffff8111156110d457600080fd5b6110e085828601610fc6565b9250506110ef6020840161108e565b90509250929050565b600082601f83011261110957600080fd5b8135602067ffffffffffffffff8083111561112657611126610f56565b8260051b611135838201610f95565b938452858101830193838101908886111561114f57600080fd5b84880192505b858310156111ee5782358481111561116d5760008081fd5b88016060818b03601f19018113156111855760008081fd5b61118d610f6c565b61119888840161108e565b8152604080840135888111156111ae5760008081fd5b6111bc8e8b83880101610fc6565b838b015250928201359260ff841684146111d857600092508283fd5b8101929092525082529184019190840190611155565b98975050505050505050565b803567ffffffffffffffff811681146110a557600080fd5b8035600781900b81146110a557600080fd5b60008060008060008060008060006101208a8c03121561124357600080fd5b893567ffffffffffffffff8082111561125b57600080fd5b6112678d838e01610fc6565b9a5060208c013591508082111561127d57600080fd5b6112898d838e01610fc6565b995060408c013591508082111561129f57600080fd5b6112ab8d838e01610fc6565b985060608c01359150808211156112c157600080fd5b6112cd8d838e01610fc6565b975060808c01359150808211156112e357600080fd5b6112ef8d838e016110f8565b965060a08c013591508082111561130557600080fd5b506113128c828d01610fc6565b94505061132160c08b016111fa565b925061132f60e08b01611212565b915061133e6101008b01611212565b90509295985092959850929598565b600080600080600060a0868803121561136557600080fd5b8535945060208601359350604086013567ffffffffffffffff8082111561138b57600080fd5b61139789838a01610fc6565b94506060880135935060808801359150808211156113b457600080fd5b506113c188828901610fc6565b9150509295509295909350565b60008060008060008060c087890312156113e757600080fd5b6113f08761108e565b95506113fe6020880161108e565b945061140c6040880161108e565b935061141a6060880161108e565b92506114286080880161108e565b915061143660a0880161108e565b90509295509295509295565b60006020828403121561145457600080fd5b61145d8261108e565b9392505050565b6000815180845260005b8181101561148a5760208185018101518683018201520161146e565b506000602082860101526020601f19601f83011685010191505092915050565b8481528360208201526080604082015260006114c96080830185611464565b905082606083015295945050505050565b6000602082840312156114ec57600080fd5b5051919050565b6040815260006115066040830185611464565b905060018060a01b03831660208301529392505050565b60c08152600061153060c0830189611464565b602083820381850152611543828a611464565b9150604084830381860152611558838a611464565b925060608584038187015261156d848a611464565b935085840360808701528388518086528486019150848160051b870101858b0160005b838110156115e657888303601f19018552815180516001600160a01b03168452888101518985018890526115c688860182611464565b9189015160ff169489019490945294880194925090870190600101611590565b505088810360a08a01526115fa818b611464565b9f9e505050505050505050505050505050565b60c08152600061162060c0830189611464565b67ffffffffffffffff979097166020830152509315156040850152600792830b6060850152910b608083015260a090910152919050565b8481526080602082015260006116706080830186611464565b82810360408401526116828186611464565b905082810360608401526116968185611464565b979650505050505050565b6020808252602c908201527f4461746150726f76436861696e3a20496e76616c69642066656520636f6c6c6560408201526b63746f72206164647265737360a01b60608201526080019056fea2646970667358221220613e08a7ea8d3af2ac59e0d0e9139f2636ce82f22d334db2050c69f418b6319b64736f6c63430008110033",
  "linkReferences": {},
  "deployedLinkReferences": {}
}